{
  "_format": "hh-sol-artifact-1",
  "contractName": "EVMBridgeERC20Minter",
  "sourceName": "contracts/EVMBridgeERC20Minter.sol",
  "abi": [
    {
      "inputs": [
        {
          "internalType": "string",
          "name": "_bridgeChain",
          "type": "string"
        },
        {
          "internalType": "uint256",
          "name": "_feesInDollar",
          "type": "uint256"
        },
        {
          "internalType": "uint256",
          "name": "_minimumTransferQuantity",
          "type": "uint256"
        },
        {
          "internalType": "string",
          "name": "name",
          "type": "string"
        },
        {
          "internalType": "string",
          "name": "symbol",
          "type": "string"
        }
      ],
      "stateMutability": "nonpayable",
      "type": "constructor"
    },
    {
      "anonymous": false,
      "inputs": [
        {
          "indexed": true,
          "internalType": "address",
          "name": "owner",
          "type": "address"
        },
        {
          "indexed": true,
          "internalType": "address",
          "name": "spender",
          "type": "address"
        },
        {
          "indexed": false,
          "internalType": "uint256",
          "name": "value",
          "type": "uint256"
        }
      ],
      "name": "Approval",
      "type": "event"
    },
    {
      "anonymous": false,
      "inputs": [
        {
          "indexed": false,
          "internalType": "bytes32",
          "name": "hash",
          "type": "bytes32"
        }
      ],
      "name": "NewBridgeTransferEvent",
      "type": "event"
    },
    {
      "anonymous": false,
      "inputs": [
        {
          "indexed": false,
          "internalType": "uint256",
          "name": "amount",
          "type": "uint256"
        },
        {
          "indexed": false,
          "internalType": "string",
          "name": "toChain",
          "type": "string"
        }
      ],
      "name": "Transfer",
      "type": "event"
    },
    {
      "anonymous": false,
      "inputs": [
        {
          "indexed": true,
          "internalType": "address",
          "name": "from",
          "type": "address"
        },
        {
          "indexed": true,
          "internalType": "address",
          "name": "to",
          "type": "address"
        },
        {
          "indexed": false,
          "internalType": "uint256",
          "name": "value",
          "type": "uint256"
        }
      ],
      "name": "Transfer",
      "type": "event"
    },
    {
      "inputs": [
        {
          "internalType": "address",
          "name": "to",
          "type": "address"
        },
        {
          "internalType": "uint256",
          "name": "amount",
          "type": "uint256"
        },
        {
          "internalType": "uint256",
          "name": "bn",
          "type": "uint256"
        }
      ],
      "name": "addTransferFrom",
      "outputs": [],
      "stateMutability": "nonpayable",
      "type": "function"
    },
    {
      "inputs": [
        {
          "internalType": "address",
          "name": "owner",
          "type": "address"
        },
        {
          "internalType": "address",
          "name": "spender",
          "type": "address"
        }
      ],
      "name": "allowance",
      "outputs": [
        {
          "internalType": "uint256",
          "name": "",
          "type": "uint256"
        }
      ],
      "stateMutability": "view",
      "type": "function"
    },
    {
      "inputs": [
        {
          "internalType": "address",
          "name": "spender",
          "type": "address"
        },
        {
          "internalType": "uint256",
          "name": "amount",
          "type": "uint256"
        }
      ],
      "name": "approve",
      "outputs": [
        {
          "internalType": "bool",
          "name": "",
          "type": "bool"
        }
      ],
      "stateMutability": "nonpayable",
      "type": "function"
    },
    {
      "inputs": [],
      "name": "balance",
      "outputs": [
        {
          "internalType": "uint256",
          "name": "",
          "type": "uint256"
        }
      ],
      "stateMutability": "view",
      "type": "function"
    },
    {
      "inputs": [
        {
          "internalType": "address",
          "name": "account",
          "type": "address"
        }
      ],
      "name": "balanceOf",
      "outputs": [
        {
          "internalType": "uint256",
          "name": "",
          "type": "uint256"
        }
      ],
      "stateMutability": "view",
      "type": "function"
    },
    {
      "inputs": [],
      "name": "chain",
      "outputs": [
        {
          "internalType": "string",
          "name": "",
          "type": "string"
        }
      ],
      "stateMutability": "view",
      "type": "function"
    },
    {
      "inputs": [
        {
          "internalType": "address",
          "name": "newOwner",
          "type": "address"
        }
      ],
      "name": "changeOwner",
      "outputs": [],
      "stateMutability": "nonpayable",
      "type": "function"
    },
    {
      "inputs": [
        {
          "internalType": "address",
          "name": "newProgram",
          "type": "address"
        }
      ],
      "name": "changeProgram",
      "outputs": [],
      "stateMutability": "nonpayable",
      "type": "function"
    },
    {
      "inputs": [],
      "name": "claimFees",
      "outputs": [],
      "stateMutability": "nonpayable",
      "type": "function"
    },
    {
      "inputs": [],
      "name": "decimals",
      "outputs": [
        {
          "internalType": "uint8",
          "name": "",
          "type": "uint8"
        }
      ],
      "stateMutability": "view",
      "type": "function"
    },
    {
      "inputs": [
        {
          "internalType": "address",
          "name": "spender",
          "type": "address"
        },
        {
          "internalType": "uint256",
          "name": "subtractedValue",
          "type": "uint256"
        }
      ],
      "name": "decreaseAllowance",
      "outputs": [
        {
          "internalType": "bool",
          "name": "",
          "type": "bool"
        }
      ],
      "stateMutability": "nonpayable",
      "type": "function"
    },
    {
      "inputs": [],
      "name": "defaultFeesInETH",
      "outputs": [
        {
          "internalType": "uint256",
          "name": "",
          "type": "uint256"
        }
      ],
      "stateMutability": "view",
      "type": "function"
    },
    {
      "inputs": [
        {
          "internalType": "address",
          "name": "coin",
          "type": "address"
        },
        {
          "internalType": "uint256",
          "name": "quantity",
          "type": "uint256"
        }
      ],
      "name": "deposit",
      "outputs": [],
      "stateMutability": "nonpayable",
      "type": "function"
    },
    {
      "inputs": [],
      "name": "feesInDollar",
      "outputs": [
        {
          "internalType": "uint256",
          "name": "",
          "type": "uint256"
        }
      ],
      "stateMutability": "view",
      "type": "function"
    },
    {
      "inputs": [],
      "name": "getDex",
      "outputs": [
        {
          "internalType": "address",
          "name": "",
          "type": "address"
        },
        {
          "internalType": "address",
          "name": "",
          "type": "address"
        },
        {
          "internalType": "address",
          "name": "",
          "type": "address"
        }
      ],
      "stateMutability": "view",
      "type": "function"
    },
    {
      "inputs": [],
      "name": "getFees",
      "outputs": [
        {
          "internalType": "uint256",
          "name": "",
          "type": "uint256"
        }
      ],
      "stateMutability": "view",
      "type": "function"
    },
    {
      "inputs": [],
      "name": "getFeesInDollar",
      "outputs": [
        {
          "internalType": "uint256",
          "name": "",
          "type": "uint256"
        }
      ],
      "stateMutability": "view",
      "type": "function"
    },
    {
      "inputs": [],
      "name": "getFeesInETH",
      "outputs": [
        {
          "internalType": "uint256",
          "name": "",
          "type": "uint256"
        }
      ],
      "stateMutability": "view",
      "type": "function"
    },
    {
      "inputs": [
        {
          "internalType": "address",
          "name": "_in",
          "type": "address"
        },
        {
          "internalType": "address",
          "name": "_out",
          "type": "address"
        },
        {
          "internalType": "address",
          "name": "_pool",
          "type": "address"
        }
      ],
      "name": "getTokenPriceOutFromPoolBalance",
      "outputs": [
        {
          "internalType": "uint256",
          "name": "",
          "type": "uint256"
        }
      ],
      "stateMutability": "view",
      "type": "function"
    },
    {
      "inputs": [
        {
          "internalType": "address",
          "name": "spender",
          "type": "address"
        },
        {
          "internalType": "uint256",
          "name": "addedValue",
          "type": "uint256"
        }
      ],
      "name": "increaseAllowance",
      "outputs": [
        {
          "internalType": "bool",
          "name": "",
          "type": "bool"
        }
      ],
      "stateMutability": "nonpayable",
      "type": "function"
    },
    {
      "inputs": [
        {
          "internalType": "uint256",
          "name": "quantity",
          "type": "uint256"
        },
        {
          "internalType": "string",
          "name": "toChain",
          "type": "string"
        }
      ],
      "name": "initTransfer",
      "outputs": [],
      "stateMutability": "payable",
      "type": "function"
    },
    {
      "inputs": [],
      "name": "isPaused",
      "outputs": [
        {
          "internalType": "bool",
          "name": "",
          "type": "bool"
        }
      ],
      "stateMutability": "view",
      "type": "function"
    },
    {
      "inputs": [
        {
          "internalType": "address",
          "name": "sender",
          "type": "address"
        },
        {
          "internalType": "uint256",
          "name": "transferBn",
          "type": "uint256"
        }
      ],
      "name": "isTransferProcessed",
      "outputs": [
        {
          "internalType": "bool",
          "name": "",
          "type": "bool"
        }
      ],
      "stateMutability": "view",
      "type": "function"
    },
    {
      "inputs": [],
      "name": "minimumTransferQuantity",
      "outputs": [
        {
          "internalType": "uint256",
          "name": "",
          "type": "uint256"
        }
      ],
      "stateMutability": "view",
      "type": "function"
    },
    {
      "inputs": [],
      "name": "name",
      "outputs": [
        {
          "internalType": "string",
          "name": "",
          "type": "string"
        }
      ],
      "stateMutability": "view",
      "type": "function"
    },
    {
      "inputs": [],
      "name": "owner",
      "outputs": [
        {
          "internalType": "address",
          "name": "",
          "type": "address"
        }
      ],
      "stateMutability": "view",
      "type": "function"
    },
    {
      "inputs": [],
      "name": "program",
      "outputs": [
        {
          "internalType": "address",
          "name": "",
          "type": "address"
        }
      ],
      "stateMutability": "view",
      "type": "function"
    },
    {
      "inputs": [
        {
          "internalType": "uint256",
          "name": "cost",
          "type": "uint256"
        }
      ],
      "name": "setDefaultFeesInETH",
      "outputs": [],
      "stateMutability": "nonpayable",
      "type": "function"
    },
    {
      "inputs": [
        {
          "internalType": "address",
          "name": "_in",
          "type": "address"
        },
        {
          "internalType": "address",
          "name": "_out",
          "type": "address"
        },
        {
          "internalType": "address",
          "name": "_pool",
          "type": "address"
        }
      ],
      "name": "setDex",
      "outputs": [],
      "stateMutability": "nonpayable",
      "type": "function"
    },
    {
      "inputs": [
        {
          "internalType": "uint256",
          "name": "cost",
          "type": "uint256"
        }
      ],
      "name": "setFeesInDollar",
      "outputs": [],
      "stateMutability": "nonpayable",
      "type": "function"
    },
    {
      "inputs": [
        {
          "internalType": "uint256",
          "name": "quantity",
          "type": "uint256"
        }
      ],
      "name": "setMinimumTransferQuantity",
      "outputs": [],
      "stateMutability": "nonpayable",
      "type": "function"
    },
    {
      "inputs": [
        {
          "internalType": "bool",
          "name": "p",
          "type": "bool"
        }
      ],
      "name": "setPaused",
      "outputs": [],
      "stateMutability": "nonpayable",
      "type": "function"
    },
    {
      "inputs": [],
      "name": "symbol",
      "outputs": [
        {
          "internalType": "string",
          "name": "",
          "type": "string"
        }
      ],
      "stateMutability": "view",
      "type": "function"
    },
    {
      "inputs": [],
      "name": "totalSupply",
      "outputs": [
        {
          "internalType": "uint256",
          "name": "",
          "type": "uint256"
        }
      ],
      "stateMutability": "view",
      "type": "function"
    },
    {
      "inputs": [
        {
          "internalType": "address",
          "name": "recipient",
          "type": "address"
        },
        {
          "internalType": "uint256",
          "name": "amount",
          "type": "uint256"
        }
      ],
      "name": "transfer",
      "outputs": [
        {
          "internalType": "bool",
          "name": "",
          "type": "bool"
        }
      ],
      "stateMutability": "nonpayable",
      "type": "function"
    },
    {
      "inputs": [
        {
          "internalType": "address",
          "name": "sender",
          "type": "address"
        },
        {
          "internalType": "address",
          "name": "recipient",
          "type": "address"
        },
        {
          "internalType": "uint256",
          "name": "amount",
          "type": "uint256"
        }
      ],
      "name": "transferFrom",
      "outputs": [
        {
          "internalType": "bool",
          "name": "",
          "type": "bool"
        }
      ],
      "stateMutability": "nonpayable",
      "type": "function"
    },
    {
      "inputs": [
        {
          "internalType": "uint256",
          "name": "amount",
          "type": "uint256"
        }
      ],
      "name": "unwrap",
      "outputs": [],
      "stateMutability": "nonpayable",
      "type": "function"
    },
    {
      "inputs": [
        {
          "internalType": "uint256",
          "name": "_feesInDollar",
          "type": "uint256"
        }
      ],
      "name": "updateTransferCost",
      "outputs": [],
      "stateMutability": "nonpayable",
      "type": "function"
    },
    {
      "inputs": [],
      "name": "wrap",
      "outputs": [],
      "stateMutability": "payable",
      "type": "function"
    }
  ],
  "bytecode": "0x60806040523480156200001157600080fd5b5060405162002fcc38038062002fcc8339810160408190526200003491620002b9565b81816000601283600490805190602001906200005292919062000146565b5082516200006890600590602086019062000146565b506002919091556003805460ff191660ff90921691909117905550600090506200008f3390565b6001600160a01b03161415620000f75760405162461bcd60e51b8152602060048201526024808201527f4272696467653a206465706c6f792066726f6d20746865207a65726f206164646044820152637265737360e01b606482015260840160405180910390fd5b60068054336001600160a01b0319918216811790925560078054909116909117905584516200012e90600890602088019062000146565b505050600991909155600b55506000600a556200039b565b82805462000154906200035e565b90600052602060002090601f016020900481019282620001785760008555620001c3565b82601f106200019357805160ff1916838001178555620001c3565b82800160010185558215620001c3579182015b82811115620001c3578251825591602001919060010190620001a6565b50620001d1929150620001d5565b5090565b5b80821115620001d15760008155600101620001d6565b634e487b7160e01b600052604160045260246000fd5b600082601f8301126200021457600080fd5b81516001600160401b0380821115620002315762000231620001ec565b604051601f8301601f19908116603f011681019082821181831017156200025c576200025c620001ec565b816040528381526020925086838588010111156200027957600080fd5b600091505b838210156200029d57858201830151818301840152908201906200027e565b83821115620002af5760008385830101525b9695505050505050565b600080600080600060a08688031215620002d257600080fd5b85516001600160401b0380821115620002ea57600080fd5b620002f889838a0162000202565b9650602088015195506040880151945060608801519150808211156200031d57600080fd5b6200032b89838a0162000202565b935060808801519150808211156200034257600080fd5b50620003518882890162000202565b9150509295509295909350565b600181811c908216806200037357607f821691505b602082108114156200039557634e487b7160e01b600052602260045260246000fd5b50919050565b612c2180620003ab6000396000f3fe6080604052600436106102a05760003560e01c806381d1f9dc1161016e578063c763e5a1116100cb578063db8d55f11161007f578063de0e9a3e11610064578063de0e9a3e14610731578063f8228f7b14610751578063fb93f0161461076757600080fd5b8063db8d55f114610670578063dd62ed3e146106eb57600080fd5b8063d294f093116100b0578063d294f093146106b9578063d46eb119146106ce578063db18ba7d146106d657600080fd5b8063c763e5a114610684578063c860ebc61461069957600080fd5b8063a5d5310411610122578063a9059cbb11610107578063a9059cbb14610620578063b187bd2614610640578063b69ef8a81461067057600080fd5b8063a5d53104146105e0578063a6f9dae11461060057600080fd5b806395d89b411161015357806395d89b41146105655780639d1b9f501461057a578063a457c2d7146105c057600080fd5b806381d1f9dc146105185780638da5cb5b1461052d57600080fd5b8063395093511161021c57806347e7ef24116101d0578063649c6c56116101b5578063649c6c561461034157806370a08231146104c257806375045691146104f857600080fd5b806347e7ef24146104825780634cc3f6e8146104a257600080fd5b80633e035383116102015780633e0353831461042c578063419f75fe1461044257806342ae278c1461046257600080fd5b806339509351146103f65780633b3438ce1461041657600080fd5b806318fdc2c811610273578063202bdfc311610258578063202bdfc3146103a157806323b872dd146103b4578063313ce567146103d457600080fd5b806318fdc2c814610341578063191622ff1461036157600080fd5b806306fdde03146102a5578063095ea7b3146102d057806316c38b3c1461030057806318160ddd14610322575b600080fd5b3480156102b157600080fd5b506102ba610787565b6040516102c791906127c1565b60405180910390f35b3480156102dc57600080fd5b506102f06102eb36600461282e565b610819565b60405190151581526020016102c7565b34801561030c57600080fd5b5061032061031b366004612869565b61082f565b005b34801561032e57600080fd5b506002545b6040519081526020016102c7565b34801561034d57600080fd5b5061032061035c366004612886565b6108fe565b34801561036d57600080fd5b50600d54600e54600f54604080516001600160a01b03948516815292841660208401529216918101919091526060016102c7565b6103206103af36600461289f565b610983565b3480156103c057600080fd5b506102f06103cf36600461291b565b610c93565b3480156103e057600080fd5b5060035460405160ff90911681526020016102c7565b34801561040257600080fd5b506102f061041136600461282e565b610d59565b34801561042257600080fd5b50610333600a5481565b34801561043857600080fd5b5061033360095481565b34801561044e57600080fd5b5061032061045d366004612886565b610d90565b34801561046e57600080fd5b5061033361047d366004612957565b610e15565b34801561048e57600080fd5b5061032061049d36600461282e565b610f73565b3480156104ae57600080fd5b506103206104bd36600461299a565b61129d565b3480156104ce57600080fd5b506103336104dd3660046129cd565b6001600160a01b031660009081526020819052604090205490565b34801561050457600080fd5b50610320610513366004612957565b611457565b34801561052457600080fd5b5061033361152e565b34801561053957600080fd5b5060065461054d906001600160a01b031681565b6040516001600160a01b0390911681526020016102c7565b34801561057157600080fd5b506102ba61159d565b34801561058657600080fd5b506102f061059536600461282e565b6001600160a01b03919091166000908152600c60209081526040808320938352929052205460ff1690565b3480156105cc57600080fd5b506102f06105db36600461282e565b6115ac565b3480156105ec57600080fd5b506103206105fb3660046129cd565b61165f565b34801561060c57600080fd5b5061032061061b3660046129cd565b61176f565b34801561062c57600080fd5b506102f061063b36600461282e565b61187f565b34801561064c57600080fd5b50600f5474010000000000000000000000000000000000000000900460ff166102f0565b34801561067c57600080fd5b503031610333565b34801561069057600080fd5b506102ba61188c565b3480156106a557600080fd5b5060075461054d906001600160a01b031681565b3480156106c557600080fd5b5061032061191a565b610320611b1a565b3480156106e257600080fd5b50600954610333565b3480156106f757600080fd5b506103336107063660046129e8565b6001600160a01b03918216600090815260016020908152604080832093909416825291909152205490565b34801561073d57600080fd5b5061032061074c366004612886565b611d0d565b34801561075d57600080fd5b50610333600b5481565b34801561077357600080fd5b50610320610782366004612886565b611f97565b60606004805461079690612a1b565b80601f01602080910402602001604051908101604052809291908181526020018280546107c290612a1b565b801561080f5780601f106107e45761010080835404028352916020019161080f565b820191906000526020600020905b8154815290600101906020018083116107f257829003601f168201915b5050505050905090565b600061082633848461201c565b50600192915050565b6006546001600160a01b031633146108b45760405162461bcd60e51b815260206004820152602160248201527f4f6e6c7920746865206f776e65722063616e20646f207468697320616374696f60448201527f6e0000000000000000000000000000000000000000000000000000000000000060648201526084015b60405180910390fd5b600f805491151574010000000000000000000000000000000000000000027fffffffffffffffffffffff00ffffffffffffffffffffffffffffffffffffffff909216919091179055565b6006546001600160a01b0316331461097e5760405162461bcd60e51b815260206004820152602160248201527f4f6e6c7920746865206f776e65722063616e20646f207468697320616374696f60448201527f6e0000000000000000000000000000000000000000000000000000000000000060648201526084016108ab565b600955565b600f547501000000000000000000000000000000000000000000900460ff16156109ef5760405162461bcd60e51b815260206004820152600e60248201527f4e6f2072652d656e7472616e637900000000000000000000000000000000000060448201526064016108ab565b600f80547fffffffffffffffffffff00ffffffffffffffffffffffffffffffffffffffffff167501000000000000000000000000000000000000000000179081905574010000000000000000000000000000000000000000900460ff1615610a995760405162461bcd60e51b815260206004820152601660248201527f4272696467652061637475616c6c79207061757365640000000000000000000060448201526064016108ab565b600b54831015610aeb5760405162461bcd60e51b815260206004820152601360248201527f494e5355464953414e545f5155414e544954590000000000000000000000000060448201526064016108ab565b610b096064610b03605a610afd61152e565b90612175565b90612188565b341015610b585760405162461bcd60e51b815260206004820152600d60248201527f5041594d454e545f41424f52540000000000000000000000000000000000000060448201526064016108ab565b33600090815260208190526040902054831115610bb75760405162461bcd60e51b815260206004820152601260248201527f494e5355464953414e545f42414c414e4345000000000000000000000000000060448201526064016108ab565b336000908152600160209081526040808320308452909152902054831115610c215760405162461bcd60e51b815260206004820152601460248201527f494e5355464953414e545f414c4c4f57414e434500000000000000000000000060448201526064016108ab565b610c2b3384612194565b7f9060fea662832699cca863409e283b48eb088414dc780c4d43afe69caefee4b5838383604051610c5e93929190612a6f565b60405180910390a15050600f80547fffffffffffffffffffff00ffffffffffffffffffffffffffffffffffffffffff16905550565b6000610ca084848461231a565b6001600160a01b038416600090815260016020908152604080832033845290915290205482811015610d3a5760405162461bcd60e51b815260206004820152602860248201527f45524332303a207472616e7366657220616d6f756e742065786365656473206160448201527f6c6c6f77616e636500000000000000000000000000000000000000000000000060648201526084016108ab565b610d4e8533610d498685612af2565b61201c565b506001949350505050565b3360008181526001602090815260408083206001600160a01b03871684529091528120549091610826918590610d49908690612b09565b6006546001600160a01b03163314610e105760405162461bcd60e51b815260206004820152602160248201527f4f6e6c7920746865206f776e65722063616e20646f207468697320616374696f60448201527f6e0000000000000000000000000000000000000000000000000000000000000060648201526084016108ab565b600b55565b6040517f70a082310000000000000000000000000000000000000000000000000000000081526001600160a01b03828116600483015260009182918616906370a082319060240160206040518083038186803b158015610e7457600080fd5b505afa158015610e88573d6000803e3d6000fd5b505050506040513d601f19601f82011682018060405250810190610eac9190612b21565b6040517f70a082310000000000000000000000000000000000000000000000000000000081526001600160a01b0385811660048301529192506000918616906370a082319060240160206040518083038186803b158015610f0c57600080fd5b505afa158015610f20573d6000803e3d6000fd5b505050506040513d601f19601f82011682018060405250810190610f449190612b21565b905060008111610f5357600080fd5b610f6981610b0384670de0b6b3a7640000612175565b9695505050505050565b6006546001600160a01b03163314610ff35760405162461bcd60e51b815260206004820152602160248201527f4f6e6c7920746865206f776e65722063616e20646f207468697320616374696f60448201527f6e0000000000000000000000000000000000000000000000000000000000000060648201526084016108ab565b600f547501000000000000000000000000000000000000000000900460ff161561105f5760405162461bcd60e51b815260206004820152600e60248201527f4e6f2072652d656e7472616e637900000000000000000000000000000000000060448201526064016108ab565b600f80547fffffffffffffffffffff00ffffffffffffffffffffffffffffffffffffffffff1675010000000000000000000000000000000000000000001790556040517f70a0823100000000000000000000000000000000000000000000000000000000815233600482015281906001600160a01b038416906370a082319060240160206040518083038186803b1580156110f957600080fd5b505afa15801561110d573d6000803e3d6000fd5b505050506040513d601f19601f820116820180604052508101906111319190612b21565b101561117f5760405162461bcd60e51b815260206004820152601260248201527f494e5355464953414e545f42414c414e4345000000000000000000000000000060448201526064016108ab565b6040517fdd62ed3e00000000000000000000000000000000000000000000000000000000815233600482015230602482015281906001600160a01b0384169063dd62ed3e9060440160206040518083038186803b1580156111df57600080fd5b505afa1580156111f3573d6000803e3d6000fd5b505050506040513d601f19601f820116820180604052508101906112179190612b21565b10156112655760405162461bcd60e51b815260206004820152601460248201527f494e5355464953414e545f414c4c4f57414e434500000000000000000000000060448201526064016108ab565b6112718233308461253b565b5050600f80547fffffffffffffffffffff00ffffffffffffffffffffffffffffffffffffffffff169055565b6007546001600160a01b03163314806112c057506006546001600160a01b031633145b61130c5760405162461bcd60e51b815260206004820152601560248201527f4f6e6c792070726f6772616d206f72204f776e6572000000000000000000000060448201526064016108ab565b43811061135b5760405162461bcd60e51b815260206004820152600f60248201527f496e76616c69642072657175657374000000000000000000000000000000000060448201526064016108ab565b6001600160a01b0383166000908152600c6020908152604080832084845290915290205460ff16156113f55760405162461bcd60e51b815260206004820152602160248201527f427269646765207265717565737420616c72656164792070726f63657373656460448201527f2e0000000000000000000000000000000000000000000000000000000000000060648201526084016108ab565b61144883826001600160a01b039091166000908152600c602090815260408083209383529290522080547fffffffffffffffffffffffffffffffffffffffffffffffffffffffffffffff00166001179055565b61145283836126b2565b505050565b6006546001600160a01b031633146114d75760405162461bcd60e51b815260206004820152602160248201527f4f6e6c7920746865206f776e65722063616e20646f207468697320616374696f60448201527f6e0000000000000000000000000000000000000000000000000000000000000060648201526084016108ab565b600d80546001600160a01b039485167fffffffffffffffffffffffff000000000000000000000000000000000000000091821617909155600e805493851693821693909317909255600f8054919093169116179055565b600f546000906001600160a01b03161561159657600d54600e54600f54600092611568926001600160a01b03918216929082169116610e15565b90506115906064610afd600954610b03670de0b6b3a76400008661217590919063ffffffff16565b91505090565b50600a5490565b60606005805461079690612a1b565b3360009081526001602090815260408083206001600160a01b0386168452909152812054828110156116465760405162461bcd60e51b815260206004820152602560248201527f45524332303a2064656372656173656420616c6c6f77616e63652062656c6f7760448201527f207a65726f00000000000000000000000000000000000000000000000000000060648201526084016108ab565b6116553385610d498685612af2565b5060019392505050565b6006546001600160a01b031633146116df5760405162461bcd60e51b815260206004820152602160248201527f4f6e6c7920746865206f776e65722063616e20646f207468697320616374696f60448201527f6e0000000000000000000000000000000000000000000000000000000000000060648201526084016108ab565b6001600160a01b0381166117355760405162461bcd60e51b815260206004820152600f60248201527f4e6f207a65726f2061646472657373000000000000000000000000000000000060448201526064016108ab565b600780547fffffffffffffffffffffffff0000000000000000000000000000000000000000166001600160a01b0392909216919091179055565b6006546001600160a01b031633146117ef5760405162461bcd60e51b815260206004820152602160248201527f4f6e6c7920746865206f776e65722063616e20646f207468697320616374696f60448201527f6e0000000000000000000000000000000000000000000000000000000000000060648201526084016108ab565b6001600160a01b0381166118455760405162461bcd60e51b815260206004820152600f60248201527f4e6f207a65726f2061646472657373000000000000000000000000000000000060448201526064016108ab565b600680547fffffffffffffffffffffffff0000000000000000000000000000000000000000166001600160a01b0392909216919091179055565b600061082633848461231a565b6008805461189990612a1b565b80601f01602080910402602001604051908101604052809291908181526020018280546118c590612a1b565b80156119125780601f106118e757610100808354040283529160200191611912565b820191906000526020600020905b8154815290600101906020018083116118f557829003601f168201915b505050505081565b6006546001600160a01b0316331461199a5760405162461bcd60e51b815260206004820152602160248201527f4f6e6c7920746865206f776e65722063616e20646f207468697320616374696f60448201527f6e0000000000000000000000000000000000000000000000000000000000000060648201526084016108ab565b600f547501000000000000000000000000000000000000000000900460ff1615611a065760405162461bcd60e51b815260206004820152600e60248201527f4e6f2072652d656e7472616e637900000000000000000000000000000000000060448201526064016108ab565b600f80547fffffffffffffffffffff00ffffffffffffffffffffffffffffffffffffffffff1675010000000000000000000000000000000000000000001790556006546000906001600160a01b0316611a5d303190565b604051600081818185875af1925050503d8060008114611a99576040519150601f19603f3d011682016040523d82523d6000602084013e611a9e565b606091505b5050905080611aef5760405162461bcd60e51b815260206004820152601660248201527f4272696467655472616e73666572206661696c6564210000000000000000000060448201526064016108ab565b50600f80547fffffffffffffffffffff00ffffffffffffffffffffffffffffffffffffffffff169055565b600f547501000000000000000000000000000000000000000000900460ff1615611b865760405162461bcd60e51b815260206004820152600e60248201527f4e6f2072652d656e7472616e637900000000000000000000000000000000000060448201526064016108ab565b600f805475010000000000000000000000000000000000000000007fffffffffffffffffffff00ffffffffffffffffffffffffffffffffffffffffff90911617905560408051600160248201523360448201523460648083019190915282518083039091018152608490910182526020810180517bffffffffffffffffffffffffffffffffffffffffffffffffffffffff167c0100000000000000000000000000000000000000000000000000000000179052905160009182913091611c4b91612b3a565b6000604051808303816000865af19150503d8060008114611c88576040519150601f19603f3d011682016040523d82523d6000602084013e611c8d565b606091505b5091509150818015611cb7575080511580611cb7575080806020019051810190611cb79190612b56565b611d035760405162461bcd60e51b815260206004820152601b60248201527f5472616e7366657248656c7065723a204255524e5f4641494c4544000000000060448201526064016108ab565b61127133346126b2565b600f547501000000000000000000000000000000000000000000900460ff1615611d795760405162461bcd60e51b815260206004820152600e60248201527f4e6f2072652d656e7472616e637900000000000000000000000000000000000060448201526064016108ab565b600f80547fffffffffffffffffffff00ffffffffffffffffffffffffffffffffffffffffff16750100000000000000000000000000000000000000000017905580611dd9336001600160a01b031660009081526020819052604090205490565b1015611e275760405162461bcd60e51b815260206004820152600d60248201527f5041594d454e545f41424f52540000000000000000000000000000000000000060448201526064016108ab565b60408051600060248201819052336044830152606480830185905283518084039091018152608490920183526020820180517bffffffffffffffffffffffffffffffffffffffffffffffffffffffff167c0100000000000000000000000000000000000000000000000000000000179052915182913091611ea89190612b3a565b6000604051808303816000865af19150503d8060008114611ee5576040519150601f19603f3d011682016040523d82523d6000602084013e611eea565b606091505b5091509150818015611f14575080511580611f14575080806020019051810190611f149190612b56565b611f605760405162461bcd60e51b815260206004820152601b60248201527f5472616e7366657248656c7065723a204255524e5f4641494c4544000000000060448201526064016108ab565b611f6a3384612194565b5050600f80547fffffffffffffffffffff00ffffffffffffffffffffffffffffffffffffffffff16905550565b6006546001600160a01b031633146120175760405162461bcd60e51b815260206004820152602160248201527f4f6e6c7920746865206f776e65722063616e20646f207468697320616374696f60448201527f6e0000000000000000000000000000000000000000000000000000000000000060648201526084016108ab565b600a55565b6001600160a01b0383166120975760405162461bcd60e51b8152602060048201526024808201527f45524332303a20617070726f76652066726f6d20746865207a65726f2061646460448201527f726573730000000000000000000000000000000000000000000000000000000060648201526084016108ab565b6001600160a01b0382166121135760405162461bcd60e51b815260206004820152602260248201527f45524332303a20617070726f766520746f20746865207a65726f20616464726560448201527f737300000000000000000000000000000000000000000000000000000000000060648201526084016108ab565b6001600160a01b0383811660008181526001602090815260408083209487168084529482529182902085905590518481527f8c5be1e5ebec7d5bd14f71427d1e84f3dd0314c0f7b2291e5b200ac8c7c3b92591015b60405180910390a3505050565b60006121818284612b73565b9392505050565b60006121818284612bb0565b6001600160a01b0382166122105760405162461bcd60e51b815260206004820152602160248201527f45524332303a206275726e2066726f6d20746865207a65726f2061646472657360448201527f730000000000000000000000000000000000000000000000000000000000000060648201526084016108ab565b6001600160a01b0382166000908152602081905260409020548181101561229f5760405162461bcd60e51b815260206004820152602260248201527f45524332303a206275726e20616d6f756e7420657863656564732062616c616e60448201527f636500000000000000000000000000000000000000000000000000000000000060648201526084016108ab565b6122a98282612af2565b6001600160a01b038416600090815260208190526040812091909155600280548492906122d7908490612af2565b90915550506040518281526000906001600160a01b038516907fddf252ad1be2c89b69c2b068fc378daa952ba7f163c4a11628f55a4df523b3ef90602001612168565b6001600160a01b0383166123965760405162461bcd60e51b815260206004820152602560248201527f45524332303a207472616e736665722066726f6d20746865207a65726f20616460448201527f647265737300000000000000000000000000000000000000000000000000000060648201526084016108ab565b6001600160a01b0382166124125760405162461bcd60e51b815260206004820152602360248201527f45524332303a207472616e7366657220746f20746865207a65726f206164647260448201527f657373000000000000000000000000000000000000000000000000000000000060648201526084016108ab565b6001600160a01b038316600090815260208190526040902054818110156124a15760405162461bcd60e51b815260206004820152602660248201527f45524332303a207472616e7366657220616d6f756e742065786365656473206260448201527f616c616e6365000000000000000000000000000000000000000000000000000060648201526084016108ab565b6124ab8282612af2565b6001600160a01b0380861660009081526020819052604080822093909355908516815290812080548492906124e1908490612b09565b92505081905550826001600160a01b0316846001600160a01b03167fddf252ad1be2c89b69c2b068fc378daa952ba7f163c4a11628f55a4df523b3ef8460405161252d91815260200190565b60405180910390a350505050565b604080516001600160a01b0385811660248301528481166044830152606480830185905283518084039091018152608490920183526020820180517bffffffffffffffffffffffffffffffffffffffffffffffffffffffff167f23b872dd0000000000000000000000000000000000000000000000000000000017905291516000928392908816916125cd9190612b3a565b6000604051808303816000865af19150503d806000811461260a576040519150601f19603f3d011682016040523d82523d6000602084013e61260f565b606091505b50915091508180156126395750805115806126395750808060200190518101906126399190612b56565b6126aa5760405162461bcd60e51b8152602060048201526024808201527f5472616e7366657248656c7065723a205452414e534645525f46524f4d5f464160448201527f494c45440000000000000000000000000000000000000000000000000000000060648201526084016108ab565b505050505050565b6001600160a01b0382166127085760405162461bcd60e51b815260206004820152601f60248201527f45524332303a206d696e7420746f20746865207a65726f20616464726573730060448201526064016108ab565b806002600082825461271a9190612b09565b90915550506001600160a01b03821660009081526020819052604081208054839290612747908490612b09565b90915550506040518181526001600160a01b038316906000907fddf252ad1be2c89b69c2b068fc378daa952ba7f163c4a11628f55a4df523b3ef9060200160405180910390a35050565b60005b838110156127ac578181015183820152602001612794565b838111156127bb576000848401525b50505050565b60208152600082518060208401526127e0816040850160208701612791565b601f017fffffffffffffffffffffffffffffffffffffffffffffffffffffffffffffffe0169190910160400192915050565b80356001600160a01b038116811461282957600080fd5b919050565b6000806040838503121561284157600080fd5b61284a83612812565b946020939093013593505050565b801515811461286657600080fd5b50565b60006020828403121561287b57600080fd5b813561218181612858565b60006020828403121561289857600080fd5b5035919050565b6000806000604084860312156128b457600080fd5b83359250602084013567ffffffffffffffff808211156128d357600080fd5b818601915086601f8301126128e757600080fd5b8135818111156128f657600080fd5b87602082850101111561290857600080fd5b6020830194508093505050509250925092565b60008060006060848603121561293057600080fd5b61293984612812565b925061294760208501612812565b9150604084013590509250925092565b60008060006060848603121561296c57600080fd5b61297584612812565b925061298360208501612812565b915061299160408501612812565b90509250925092565b6000806000606084860312156129af57600080fd5b6129b884612812565b95602085013595506040909401359392505050565b6000602082840312156129df57600080fd5b61218182612812565b600080604083850312156129fb57600080fd5b612a0483612812565b9150612a1260208401612812565b90509250929050565b600181811c90821680612a2f57607f821691505b60208210811415612a69577f4e487b7100000000000000000000000000000000000000000000000000000000600052602260045260246000fd5b50919050565b83815260406020820152816040820152818360608301376000818301606090810191909152601f9092017fffffffffffffffffffffffffffffffffffffffffffffffffffffffffffffffe016010192915050565b7f4e487b7100000000000000000000000000000000000000000000000000000000600052601160045260246000fd5b600082821015612b0457612b04612ac3565b500390565b60008219821115612b1c57612b1c612ac3565b500190565b600060208284031215612b3357600080fd5b5051919050565b60008251612b4c818460208701612791565b9190910192915050565b600060208284031215612b6857600080fd5b815161218181612858565b6000817fffffffffffffffffffffffffffffffffffffffffffffffffffffffffffffffff0483118215151615612bab57612bab612ac3565b500290565b600082612be6577f4e487b7100000000000000000000000000000000000000000000000000000000600052601260045260246000fd5b50049056fea264697066735822122005bcdf30ccbb890c136fd8c7fd06f7c96260d47974b3da57191040f57867fbb364736f6c63430008090033",
  "linkReferences": {},
  "deployedLinkReferences": {}
}