{
  "_format": "hh-sol-artifact-1",
  "contractName": "EVMBridgeWGLQ",
  "sourceName": "contracts/EVMBridgeWGLQ.sol",
  "abi": [
    {
      "inputs": [
        {
          "internalType": "string",
          "name": "_bridgeChain",
          "type": "string"
        },
        {
          "internalType": "uint256",
          "name": "_feesInDollar",
          "type": "uint256"
        },
        {
          "internalType": "uint256",
          "name": "_minimumTransferQuantity",
          "type": "uint256"
        }
      ],
      "stateMutability": "nonpayable",
      "type": "constructor"
    },
    {
      "anonymous": false,
      "inputs": [
        {
          "indexed": false,
          "internalType": "bytes32",
          "name": "hash",
          "type": "bytes32"
        }
      ],
      "name": "NewBridgeTransferEvent",
      "type": "event"
    },
    {
      "anonymous": false,
      "inputs": [
        {
          "indexed": false,
          "internalType": "uint256",
          "name": "amount",
          "type": "uint256"
        },
        {
          "indexed": false,
          "internalType": "string",
          "name": "toChain",
          "type": "string"
        }
      ],
      "name": "Transfer",
      "type": "event"
    },
    {
      "inputs": [
        {
          "internalType": "address",
          "name": "to",
          "type": "address"
        },
        {
          "internalType": "uint256",
          "name": "amount",
          "type": "uint256"
        },
        {
          "internalType": "uint256",
          "name": "bn",
          "type": "uint256"
        }
      ],
      "name": "addTransferFrom",
      "outputs": [],
      "stateMutability": "nonpayable",
      "type": "function"
    },
    {
      "inputs": [],
      "name": "balance",
      "outputs": [
        {
          "internalType": "uint256",
          "name": "",
          "type": "uint256"
        }
      ],
      "stateMutability": "view",
      "type": "function"
    },
    {
      "inputs": [],
      "name": "chain",
      "outputs": [
        {
          "internalType": "string",
          "name": "",
          "type": "string"
        }
      ],
      "stateMutability": "view",
      "type": "function"
    },
    {
      "inputs": [
        {
          "internalType": "address",
          "name": "newOwner",
          "type": "address"
        }
      ],
      "name": "changeOwner",
      "outputs": [],
      "stateMutability": "nonpayable",
      "type": "function"
    },
    {
      "inputs": [
        {
          "internalType": "address",
          "name": "newProgram",
          "type": "address"
        }
      ],
      "name": "changeProgram",
      "outputs": [],
      "stateMutability": "nonpayable",
      "type": "function"
    },
    {
      "inputs": [],
      "name": "claimFees",
      "outputs": [],
      "stateMutability": "nonpayable",
      "type": "function"
    },
    {
      "inputs": [],
      "name": "defaultFeesInETH",
      "outputs": [
        {
          "internalType": "uint256",
          "name": "",
          "type": "uint256"
        }
      ],
      "stateMutability": "view",
      "type": "function"
    },
    {
      "inputs": [
        {
          "internalType": "address",
          "name": "coin",
          "type": "address"
        },
        {
          "internalType": "uint256",
          "name": "quantity",
          "type": "uint256"
        }
      ],
      "name": "deposit",
      "outputs": [],
      "stateMutability": "nonpayable",
      "type": "function"
    },
    {
      "inputs": [],
      "name": "feesInDollar",
      "outputs": [
        {
          "internalType": "uint256",
          "name": "",
          "type": "uint256"
        }
      ],
      "stateMutability": "view",
      "type": "function"
    },
    {
      "inputs": [],
      "name": "getDex",
      "outputs": [
        {
          "internalType": "address",
          "name": "",
          "type": "address"
        },
        {
          "internalType": "address",
          "name": "",
          "type": "address"
        },
        {
          "internalType": "address",
          "name": "",
          "type": "address"
        }
      ],
      "stateMutability": "view",
      "type": "function"
    },
    {
      "inputs": [],
      "name": "getFees",
      "outputs": [
        {
          "internalType": "uint256",
          "name": "",
          "type": "uint256"
        }
      ],
      "stateMutability": "view",
      "type": "function"
    },
    {
      "inputs": [],
      "name": "getFeesInDollar",
      "outputs": [
        {
          "internalType": "uint256",
          "name": "",
          "type": "uint256"
        }
      ],
      "stateMutability": "view",
      "type": "function"
    },
    {
      "inputs": [],
      "name": "getFeesInETH",
      "outputs": [
        {
          "internalType": "uint256",
          "name": "",
          "type": "uint256"
        }
      ],
      "stateMutability": "view",
      "type": "function"
    },
    {
      "inputs": [
        {
          "internalType": "address",
          "name": "_in",
          "type": "address"
        },
        {
          "internalType": "address",
          "name": "_out",
          "type": "address"
        },
        {
          "internalType": "address",
          "name": "_pool",
          "type": "address"
        }
      ],
      "name": "getTokenPriceOutFromPoolBalance",
      "outputs": [
        {
          "internalType": "uint256",
          "name": "",
          "type": "uint256"
        }
      ],
      "stateMutability": "view",
      "type": "function"
    },
    {
      "inputs": [
        {
          "internalType": "uint256",
          "name": "quantity",
          "type": "uint256"
        },
        {
          "internalType": "string",
          "name": "toChain",
          "type": "string"
        }
      ],
      "name": "initTransfer",
      "outputs": [],
      "stateMutability": "payable",
      "type": "function"
    },
    {
      "inputs": [],
      "name": "isPaused",
      "outputs": [
        {
          "internalType": "bool",
          "name": "",
          "type": "bool"
        }
      ],
      "stateMutability": "view",
      "type": "function"
    },
    {
      "inputs": [
        {
          "internalType": "address",
          "name": "sender",
          "type": "address"
        },
        {
          "internalType": "uint256",
          "name": "transferBn",
          "type": "uint256"
        }
      ],
      "name": "isTransferProcessed",
      "outputs": [
        {
          "internalType": "bool",
          "name": "",
          "type": "bool"
        }
      ],
      "stateMutability": "view",
      "type": "function"
    },
    {
      "inputs": [],
      "name": "minimumTransferQuantity",
      "outputs": [
        {
          "internalType": "uint256",
          "name": "",
          "type": "uint256"
        }
      ],
      "stateMutability": "view",
      "type": "function"
    },
    {
      "inputs": [],
      "name": "owner",
      "outputs": [
        {
          "internalType": "address",
          "name": "",
          "type": "address"
        }
      ],
      "stateMutability": "view",
      "type": "function"
    },
    {
      "inputs": [],
      "name": "program",
      "outputs": [
        {
          "internalType": "address",
          "name": "",
          "type": "address"
        }
      ],
      "stateMutability": "view",
      "type": "function"
    },
    {
      "inputs": [
        {
          "internalType": "uint256",
          "name": "cost",
          "type": "uint256"
        }
      ],
      "name": "setDefaultFeesInETH",
      "outputs": [],
      "stateMutability": "nonpayable",
      "type": "function"
    },
    {
      "inputs": [
        {
          "internalType": "address",
          "name": "_in",
          "type": "address"
        },
        {
          "internalType": "address",
          "name": "_out",
          "type": "address"
        },
        {
          "internalType": "address",
          "name": "_pool",
          "type": "address"
        }
      ],
      "name": "setDex",
      "outputs": [],
      "stateMutability": "nonpayable",
      "type": "function"
    },
    {
      "inputs": [
        {
          "internalType": "uint256",
          "name": "cost",
          "type": "uint256"
        }
      ],
      "name": "setFeesInDollar",
      "outputs": [],
      "stateMutability": "nonpayable",
      "type": "function"
    },
    {
      "inputs": [
        {
          "internalType": "uint256",
          "name": "quantity",
          "type": "uint256"
        }
      ],
      "name": "setMinimumTransferQuantity",
      "outputs": [],
      "stateMutability": "nonpayable",
      "type": "function"
    },
    {
      "inputs": [
        {
          "internalType": "bool",
          "name": "p",
          "type": "bool"
        }
      ],
      "name": "setPaused",
      "outputs": [],
      "stateMutability": "nonpayable",
      "type": "function"
    },
    {
      "inputs": [
        {
          "internalType": "address",
          "name": "_token",
          "type": "address"
        }
      ],
      "name": "setTokenAddress",
      "outputs": [],
      "stateMutability": "nonpayable",
      "type": "function"
    },
    {
      "inputs": [],
      "name": "token",
      "outputs": [
        {
          "internalType": "address",
          "name": "",
          "type": "address"
        }
      ],
      "stateMutability": "view",
      "type": "function"
    },
    {
      "inputs": [
        {
          "internalType": "uint256",
          "name": "_feesInDollar",
          "type": "uint256"
        }
      ],
      "name": "updateTransferCost",
      "outputs": [],
      "stateMutability": "nonpayable",
      "type": "function"
    }
  ],
  "bytecode": "0x60806040523480156200001157600080fd5b506040516200284d3803806200284d8339810160408190526200003491620001b9565b33620000925760405162461bcd60e51b8152602060048201526024808201527f4272696467653a206465706c6f792066726f6d20746865207a65726f206164646044820152637265737360e01b606482015260840160405180910390fd5b600380546001600160a01b031990811673eb567ec41738c2bab2599a1070fc5b727721b3b61790915560008054821633908117909155600180549092161790558251620000e7906002906020860190620000fd565b50600491909155600655506000600555620002e6565b8280546200010b90620002a9565b90600052602060002090601f0160209004810192826200012f57600085556200017a565b82601f106200014a57805160ff19168380011785556200017a565b828001600101855582156200017a579182015b828111156200017a5782518255916020019190600101906200015d565b50620001889291506200018c565b5090565b5b808211156200018857600081556001016200018d565b634e487b7160e01b600052604160045260246000fd5b600080600060608486031215620001cf57600080fd5b83516001600160401b0380821115620001e757600080fd5b818601915086601f830112620001fc57600080fd5b815181811115620002115762000211620001a3565b604051601f8201601f19908116603f011681019083821181831017156200023c576200023c620001a3565b816040528281526020935089848487010111156200025957600080fd5b600091505b828210156200027d57848201840151818301850152908301906200025e565b828211156200028f5760008484830101525b928801516040909801519299979850919695505050505050565b600181811c90821680620002be57607f821691505b60208210811415620002e057634e487b7160e01b600052602260045260246000fd5b50919050565b61255780620002f66000396000f3fe6080604052600436106101b75760003560e01c80638da5cb5b116100ec578063c860ebc61161008a578063db8d55f111610064578063db8d55f114610497578063f8228f7b14610524578063fb93f0161461053a578063fc0c546a1461055a57600080fd5b8063c860ebc6146104cd578063d294f093146104fa578063db18ba7d1461050f57600080fd5b8063a6f9dae1116100c6578063a6f9dae114610447578063b187bd2614610467578063b69ef8a814610497578063c763e5a1146104ab57600080fd5b80638da5cb5b146103725780639d1b9f50146103c4578063a5d531041461042757600080fd5b8063419f75fe116101595780634cc3f6e8116101335780634cc3f6e81461031d578063649c6c56146101de578063750456911461033d57806381d1f9dc1461035d57600080fd5b8063419f75fe146102bd57806342ae278c146102dd57806347e7ef24146102fd57600080fd5b8063202bdfc311610195578063202bdfc31461025057806326a4e8d2146102635780633b3438ce146102835780633e035383146102a757600080fd5b806316c38b3c146101bc57806318fdc2c8146101de578063191622ff146101fe575b600080fd5b3480156101c857600080fd5b506101dc6101d7366004611faa565b610587565b005b3480156101ea57600080fd5b506101dc6101f9366004611fc7565b610663565b34801561020a57600080fd5b50600854600954600a546040805173ffffffffffffffffffffffffffffffffffffffff948516815292841660208401529216918101919091526060015b60405180910390f35b6101dc61025e366004611fe0565b6106f5565b34801561026f57600080fd5b506101dc61027e366004612085565b610c73565b34801561028f57600080fd5b5061029960055481565b604051908152602001610247565b3480156102b357600080fd5b5061029960045481565b3480156102c957600080fd5b506101dc6102d8366004611fc7565b610d47565b3480156102e957600080fd5b506102996102f83660046120a0565b610dd9565b34801561030957600080fd5b506101dc6103183660046120e3565b610f51565b34801561032957600080fd5b506101dc61033836600461210d565b6112a2565b34801561034957600080fd5b506101dc6103583660046120a0565b6116d6565b34801561036957600080fd5b506102996117c7565b34801561037e57600080fd5b5060005461039f9073ffffffffffffffffffffffffffffffffffffffff1681565b60405173ffffffffffffffffffffffffffffffffffffffff9091168152602001610247565b3480156103d057600080fd5b506104176103df3660046120e3565b73ffffffffffffffffffffffffffffffffffffffff919091166000908152600760209081526040808320938352929052205460ff1690565b6040519015158152602001610247565b34801561043357600080fd5b506101dc610442366004612085565b611850565b34801561045357600080fd5b506101dc610462366004612085565b611987565b34801561047357600080fd5b50600a5474010000000000000000000000000000000000000000900460ff16610417565b3480156104a357600080fd5b503031610299565b3480156104b757600080fd5b506104c0611abe565b60405161024791906121ba565b3480156104d957600080fd5b5060015461039f9073ffffffffffffffffffffffffffffffffffffffff1681565b34801561050657600080fd5b506101dc611b4c565b34801561051b57600080fd5b50600454610299565b34801561053057600080fd5b5061029960065481565b34801561054657600080fd5b506101dc610555366004611fc7565b611d64565b34801561056657600080fd5b5060035461039f9073ffffffffffffffffffffffffffffffffffffffff1681565b60005473ffffffffffffffffffffffffffffffffffffffff1633146106195760405162461bcd60e51b815260206004820152602160248201527f4f6e6c7920746865206f776e65722063616e20646f207468697320616374696f60448201527f6e0000000000000000000000000000000000000000000000000000000000000060648201526084015b60405180910390fd5b600a805491151574010000000000000000000000000000000000000000027fffffffffffffffffffffff00ffffffffffffffffffffffffffffffffffffffff909216919091179055565b60005473ffffffffffffffffffffffffffffffffffffffff1633146106f05760405162461bcd60e51b815260206004820152602160248201527f4f6e6c7920746865206f776e65722063616e20646f207468697320616374696f60448201527f6e000000000000000000000000000000000000000000000000000000000000006064820152608401610610565b600455565b600a547501000000000000000000000000000000000000000000900460ff16156107615760405162461bcd60e51b815260206004820152600e60248201527f4e6f2072652d656e7472616e63790000000000000000000000000000000000006044820152606401610610565b600a80547fffffffffffffffffffff00ffffffffffffffffffffffffffffffffffffffffff167501000000000000000000000000000000000000000000179081905574010000000000000000000000000000000000000000900460ff161561080b5760405162461bcd60e51b815260206004820152601660248201527f4272696467652061637475616c6c7920706175736564000000000000000000006044820152606401610610565b60065483101561085d5760405162461bcd60e51b815260206004820152601360248201527f494e5355464953414e545f5155414e54495459000000000000000000000000006044820152606401610610565b61087b6064610875605a61086f6117c7565b90611df6565b90611e09565b3410156108ca5760405162461bcd60e51b815260206004820152600d60248201527f5041594d454e545f41424f5254000000000000000000000000000000000000006044820152606401610610565b6003546040517f70a08231000000000000000000000000000000000000000000000000000000008152336004820152849173ffffffffffffffffffffffffffffffffffffffff16906370a082319060240160206040518083038186803b15801561093357600080fd5b505afa158015610947573d6000803e3d6000fd5b505050506040513d601f19601f8201168201806040525081019061096b91906121cd565b10156109b95760405162461bcd60e51b815260206004820152601260248201527f494e5355464953414e545f42414c414e434500000000000000000000000000006044820152606401610610565b6003546040517fdd62ed3e000000000000000000000000000000000000000000000000000000008152336004820152306024820152849173ffffffffffffffffffffffffffffffffffffffff169063dd62ed3e9060440160206040518083038186803b158015610a2857600080fd5b505afa158015610a3c573d6000803e3d6000fd5b505050506040513d601f19601f82011682018060405250810190610a6091906121cd565b1015610aae5760405162461bcd60e51b815260206004820152601460248201527f494e5355464953414e545f414c4c4f57414e43450000000000000000000000006044820152606401610610565b600354610ad39073ffffffffffffffffffffffffffffffffffffffff16333086611e15565b6003546040517f095ea7b300000000000000000000000000000000000000000000000000000000815273ffffffffffffffffffffffffffffffffffffffff90911660048201819052602482018590529063095ea7b390604401602060405180830381600087803b158015610b4657600080fd5b505af1158015610b5a573d6000803e3d6000fd5b505050506040513d601f19601f82011682018060405250810190610b7e91906121e6565b506003546040517fc2c68e0000000000000000000000000000000000000000000000000000000000815273ffffffffffffffffffffffffffffffffffffffff9091169063c2c68e0090610bd99086908690869060040161224c565b600060405180830381600087803b158015610bf357600080fd5b505af1158015610c07573d6000803e3d6000fd5b505050507f9060fea662832699cca863409e283b48eb088414dc780c4d43afe69caefee4b5838383604051610c3e93929190612281565b60405180910390a15050600a80547fffffffffffffffffffff00ffffffffffffffffffffffffffffffffffffffffff16905550565b60005473ffffffffffffffffffffffffffffffffffffffff163314610d005760405162461bcd60e51b815260206004820152602160248201527f4f6e6c7920746865206f776e65722063616e20646f207468697320616374696f60448201527f6e000000000000000000000000000000000000000000000000000000000000006064820152608401610610565b600380547fffffffffffffffffffffffff00000000000000000000000000000000000000001673ffffffffffffffffffffffffffffffffffffffff92909216919091179055565b60005473ffffffffffffffffffffffffffffffffffffffff163314610dd45760405162461bcd60e51b815260206004820152602160248201527f4f6e6c7920746865206f776e65722063616e20646f207468697320616374696f60448201527f6e000000000000000000000000000000000000000000000000000000000000006064820152608401610610565b600655565b6040517f70a0823100000000000000000000000000000000000000000000000000000000815273ffffffffffffffffffffffffffffffffffffffff828116600483015260009182918616906370a082319060240160206040518083038186803b158015610e4557600080fd5b505afa158015610e59573d6000803e3d6000fd5b505050506040513d601f19601f82011682018060405250810190610e7d91906121cd565b6040517f70a0823100000000000000000000000000000000000000000000000000000000815273ffffffffffffffffffffffffffffffffffffffff85811660048301529192506000918616906370a082319060240160206040518083038186803b158015610eea57600080fd5b505afa158015610efe573d6000803e3d6000fd5b505050506040513d601f19601f82011682018060405250810190610f2291906121cd565b905060008111610f3157600080fd5b610f478161087584670de0b6b3a7640000611df6565b9695505050505050565b60005473ffffffffffffffffffffffffffffffffffffffff163314610fde5760405162461bcd60e51b815260206004820152602160248201527f4f6e6c7920746865206f776e65722063616e20646f207468697320616374696f60448201527f6e000000000000000000000000000000000000000000000000000000000000006064820152608401610610565b600a547501000000000000000000000000000000000000000000900460ff161561104a5760405162461bcd60e51b815260206004820152600e60248201527f4e6f2072652d656e7472616e63790000000000000000000000000000000000006044820152606401610610565b600a80547fffffffffffffffffffff00ffffffffffffffffffffffffffffffffffffffffff1675010000000000000000000000000000000000000000001790556040517f70a08231000000000000000000000000000000000000000000000000000000008152336004820152819073ffffffffffffffffffffffffffffffffffffffff8416906370a082319060240160206040518083038186803b1580156110f157600080fd5b505afa158015611105573d6000803e3d6000fd5b505050506040513d601f19601f8201168201806040525081019061112991906121cd565b10156111775760405162461bcd60e51b815260206004820152601260248201527f494e5355464953414e545f42414c414e434500000000000000000000000000006044820152606401610610565b6040517fdd62ed3e000000000000000000000000000000000000000000000000000000008152336004820152306024820152819073ffffffffffffffffffffffffffffffffffffffff84169063dd62ed3e9060440160206040518083038186803b1580156111e457600080fd5b505afa1580156111f8573d6000803e3d6000fd5b505050506040513d601f19601f8201168201806040525081019061121c91906121cd565b101561126a5760405162461bcd60e51b815260206004820152601460248201527f494e5355464953414e545f414c4c4f57414e43450000000000000000000000006044820152606401610610565b61127682333084611e15565b5050600a80547fffffffffffffffffffff00ffffffffffffffffffffffffffffffffffffffffff169055565b60015473ffffffffffffffffffffffffffffffffffffffff163314806112df575060005473ffffffffffffffffffffffffffffffffffffffff1633145b61132b5760405162461bcd60e51b815260206004820152601560248201527f4f6e6c792070726f6772616d206f72204f776e657200000000000000000000006044820152606401610610565b43811061137a5760405162461bcd60e51b815260206004820152600f60248201527f496e76616c6964207265717565737400000000000000000000000000000000006044820152606401610610565b73ffffffffffffffffffffffffffffffffffffffff8316600090815260076020908152604080832084845290915290205460ff16156114215760405162461bcd60e51b815260206004820152602160248201527f427269646765207265717565737420616c72656164792070726f63657373656460448201527f2e000000000000000000000000000000000000000000000000000000000000006064820152608401610610565b611481838273ffffffffffffffffffffffffffffffffffffffff90911660009081526007602090815260408083209383529290522080547fffffffffffffffffffffffffffffffffffffffffffffffffffffffffffffff00166001179055565b604080516001808252818301909252600091816020015b6060815260200190600190039081611498579050509050600280546114bc906122a4565b80601f01602080910402602001604051908101604052809291908181526020018280546114e8906122a4565b80156115355780601f1061150a57610100808354040283529160200191611535565b820191906000526020600020905b81548152906001019060200180831161151857829003601f168201915b50505050508160008151811061154d5761154d6122f8565b60209081029190910101526040805160018082528183019092526000918160200160208202803683370190505090508481600081518110611590576115906122f8565b73ffffffffffffffffffffffffffffffffffffffff929092166020928302919091019091015260408051600180825281830190925260009181602001602082028036833701905050905084816000815181106115ee576115ee6122f8565b60209081029190910101526040805160018082528183019092526000918160200160208202803683370190505090506000801b81600081518110611634576116346122f8565b60209081029190910101526003546040517f41b3138800000000000000000000000000000000000000000000000000000000815273ffffffffffffffffffffffffffffffffffffffff909116906341b313889061169b9087908790879087906004016123a8565b600060405180830381600087803b1580156116b557600080fd5b505af11580156116c9573d6000803e3d6000fd5b5050505050505050505050565b60005473ffffffffffffffffffffffffffffffffffffffff1633146117635760405162461bcd60e51b815260206004820152602160248201527f4f6e6c7920746865206f776e65722063616e20646f207468697320616374696f60448201527f6e000000000000000000000000000000000000000000000000000000000000006064820152608401610610565b6008805473ffffffffffffffffffffffffffffffffffffffff9485167fffffffffffffffffffffffff0000000000000000000000000000000000000000918216179091556009805493851693821693909317909255600a8054919093169116179055565b600a5460009073ffffffffffffffffffffffffffffffffffffffff161561184957600854600954600a5460009261181b9273ffffffffffffffffffffffffffffffffffffffff918216929082169116610dd9565b9050611843606461086f600454610875670de0b6b3a764000086611df690919063ffffffff16565b91505090565b5060055490565b60005473ffffffffffffffffffffffffffffffffffffffff1633146118dd5760405162461bcd60e51b815260206004820152602160248201527f4f6e6c7920746865206f776e65722063616e20646f207468697320616374696f60448201527f6e000000000000000000000000000000000000000000000000000000000000006064820152608401610610565b73ffffffffffffffffffffffffffffffffffffffff81166119405760405162461bcd60e51b815260206004820152600f60248201527f4e6f207a65726f206164647265737300000000000000000000000000000000006044820152606401610610565b600180547fffffffffffffffffffffffff00000000000000000000000000000000000000001673ffffffffffffffffffffffffffffffffffffffff92909216919091179055565b60005473ffffffffffffffffffffffffffffffffffffffff163314611a145760405162461bcd60e51b815260206004820152602160248201527f4f6e6c7920746865206f776e65722063616e20646f207468697320616374696f60448201527f6e000000000000000000000000000000000000000000000000000000000000006064820152608401610610565b73ffffffffffffffffffffffffffffffffffffffff8116611a775760405162461bcd60e51b815260206004820152600f60248201527f4e6f207a65726f206164647265737300000000000000000000000000000000006044820152606401610610565b600080547fffffffffffffffffffffffff00000000000000000000000000000000000000001673ffffffffffffffffffffffffffffffffffffffff92909216919091179055565b60028054611acb906122a4565b80601f0160208091040260200160405190810160405280929190818152602001828054611af7906122a4565b8015611b445780601f10611b1957610100808354040283529160200191611b44565b820191906000526020600020905b815481529060010190602001808311611b2757829003601f168201915b505050505081565b60005473ffffffffffffffffffffffffffffffffffffffff163314611bd95760405162461bcd60e51b815260206004820152602160248201527f4f6e6c7920746865206f776e65722063616e20646f207468697320616374696f60448201527f6e000000000000000000000000000000000000000000000000000000000000006064820152608401610610565b600a547501000000000000000000000000000000000000000000900460ff1615611c455760405162461bcd60e51b815260206004820152600e60248201527f4e6f2072652d656e7472616e63790000000000000000000000000000000000006044820152606401610610565b600a80547fffffffffffffffffffff00ffffffffffffffffffffffffffffffffffffffffff1675010000000000000000000000000000000000000000001790556000805473ffffffffffffffffffffffffffffffffffffffff16611ca7303190565b604051600081818185875af1925050503d8060008114611ce3576040519150601f19603f3d011682016040523d82523d6000602084013e611ce8565b606091505b5050905080611d395760405162461bcd60e51b815260206004820152601660248201527f4272696467655472616e73666572206661696c656421000000000000000000006044820152606401610610565b50600a80547fffffffffffffffffffff00ffffffffffffffffffffffffffffffffffffffffff169055565b60005473ffffffffffffffffffffffffffffffffffffffff163314611df15760405162461bcd60e51b815260206004820152602160248201527f4f6e6c7920746865206f776e65722063616e20646f207468697320616374696f60448201527f6e000000000000000000000000000000000000000000000000000000000000006064820152608401610610565b600555565b6000611e028284612466565b9392505050565b6000611e0282846124ca565b6040805173ffffffffffffffffffffffffffffffffffffffff85811660248301528481166044830152606480830185905283518084039091018152608490920183526020820180517bffffffffffffffffffffffffffffffffffffffffffffffffffffffff167f23b872dd000000000000000000000000000000000000000000000000000000001790529151600092839290881691611eb49190612505565b6000604051808303816000865af19150503d8060008114611ef1576040519150601f19603f3d011682016040523d82523d6000602084013e611ef6565b606091505b5091509150818015611f20575080511580611f20575080806020019051810190611f2091906121e6565b611f915760405162461bcd60e51b8152602060048201526024808201527f5472616e7366657248656c7065723a205452414e534645525f46524f4d5f464160448201527f494c4544000000000000000000000000000000000000000000000000000000006064820152608401610610565b505050505050565b8015158114611fa757600080fd5b50565b600060208284031215611fbc57600080fd5b8135611e0281611f99565b600060208284031215611fd957600080fd5b5035919050565b600080600060408486031215611ff557600080fd5b83359250602084013567ffffffffffffffff8082111561201457600080fd5b818601915086601f83011261202857600080fd5b81358181111561203757600080fd5b87602082850101111561204957600080fd5b6020830194508093505050509250925092565b803573ffffffffffffffffffffffffffffffffffffffff8116811461208057600080fd5b919050565b60006020828403121561209757600080fd5b611e028261205c565b6000806000606084860312156120b557600080fd5b6120be8461205c565b92506120cc6020850161205c565b91506120da6040850161205c565b90509250925092565b600080604083850312156120f657600080fd5b6120ff8361205c565b946020939093013593505050565b60008060006060848603121561212257600080fd5b61212b8461205c565b95602085013595506040909401359392505050565b60005b8381101561215b578181015183820152602001612143565b8381111561216a576000848401525b50505050565b60008151808452612188816020860160208601612140565b601f017fffffffffffffffffffffffffffffffffffffffffffffffffffffffffffffffe0169290920160200192915050565b602081526000611e026020830184612170565b6000602082840312156121df57600080fd5b5051919050565b6000602082840312156121f857600080fd5b8151611e0281611f99565b8183528181602085013750600060208284010152600060207fffffffffffffffffffffffffffffffffffffffffffffffffffffffffffffffe0601f840116840101905092915050565b838152606060208201526000612266606083018486612203565b82810360408401526000815260208101915050949350505050565b83815260406020820152600061229b604083018486612203565b95945050505050565b600181811c908216806122b857607f821691505b602082108114156122f2577f4e487b7100000000000000000000000000000000000000000000000000000000600052602260045260246000fd5b50919050565b7f4e487b7100000000000000000000000000000000000000000000000000000000600052603260045260246000fd5b600081518084526020808501945080840160005b8381101561236d57815173ffffffffffffffffffffffffffffffffffffffff168752958201959082019060010161233b565b509495945050505050565b600081518084526020808501945080840160005b8381101561236d5781518752958201959082019060010161238c565b6000608082016080835280875180835260a08501915060a08160051b86010192506020808a0160005b8381101561241d577fffffffffffffffffffffffffffffffffffffffffffffffffffffffffffffff6088870301855261240b868351612170565b955093820193908201906001016123d1565b5050858403818701525050506124338187612327565b905082810360408401526124478186612378565b9050828103606084015261245b8185612378565b979650505050505050565b6000817fffffffffffffffffffffffffffffffffffffffffffffffffffffffffffffffff04831182151516156124c5577f4e487b7100000000000000000000000000000000000000000000000000000000600052601160045260246000fd5b500290565b600082612500577f4e487b7100000000000000000000000000000000000000000000000000000000600052601260045260246000fd5b500490565b60008251612517818460208701612140565b919091019291505056fea2646970667358221220b8eda488af2c9ed6b82b56f11e1cd22c2f81fadce218e7b6aa152d2ac1a1a82f64736f6c63430008090033",
  "linkReferences": {},
  "deployedLinkReferences": {}
}