{
  "_format": "hh-sol-artifact-1",
  "contractName": "EVMBridgeNative",
  "sourceName": "contracts/EVMBridgeNative.sol",
  "abi": [
    {
      "inputs": [
        {
          "internalType": "string",
          "name": "_bridgeChain",
          "type": "string"
        },
        {
          "internalType": "address",
          "name": "",
          "type": "address"
        },
        {
          "internalType": "uint256",
          "name": "_feesInDollar",
          "type": "uint256"
        },
        {
          "internalType": "uint256",
          "name": "_minimumTransferQuantity",
          "type": "uint256"
        }
      ],
      "stateMutability": "nonpayable",
      "type": "constructor"
    },
    {
      "anonymous": false,
      "inputs": [
        {
          "indexed": false,
          "internalType": "uint256",
          "name": "amount",
          "type": "uint256"
        },
        {
          "indexed": false,
          "internalType": "string",
          "name": "toChain",
          "type": "string"
        }
      ],
      "name": "BridgeTransfer",
      "type": "event"
    },
    {
      "inputs": [
        {
          "internalType": "address",
          "name": "from",
          "type": "address"
        },
        {
          "internalType": "uint256",
          "name": "amount",
          "type": "uint256"
        },
        {
          "internalType": "uint256",
          "name": "bn",
          "type": "uint256"
        }
      ],
      "name": "addTransferFrom",
      "outputs": [],
      "stateMutability": "nonpayable",
      "type": "function"
    },
    {
      "inputs": [],
      "name": "balance",
      "outputs": [
        {
          "internalType": "uint256",
          "name": "",
          "type": "uint256"
        }
      ],
      "stateMutability": "view",
      "type": "function"
    },
    {
      "inputs": [],
      "name": "bridgeFeesInNative",
      "outputs": [
        {
          "internalType": "uint256",
          "name": "",
          "type": "uint256"
        }
      ],
      "stateMutability": "view",
      "type": "function"
    },
    {
      "inputs": [],
      "name": "chain",
      "outputs": [
        {
          "internalType": "string",
          "name": "",
          "type": "string"
        }
      ],
      "stateMutability": "view",
      "type": "function"
    },
    {
      "inputs": [
        {
          "internalType": "address",
          "name": "newOwner",
          "type": "address"
        }
      ],
      "name": "changeOwner",
      "outputs": [],
      "stateMutability": "nonpayable",
      "type": "function"
    },
    {
      "inputs": [
        {
          "internalType": "address",
          "name": "newProgram",
          "type": "address"
        }
      ],
      "name": "changeProgram",
      "outputs": [],
      "stateMutability": "nonpayable",
      "type": "function"
    },
    {
      "inputs": [],
      "name": "claimFees",
      "outputs": [],
      "stateMutability": "nonpayable",
      "type": "function"
    },
    {
      "inputs": [],
      "name": "defaultFeesInETH",
      "outputs": [
        {
          "internalType": "uint256",
          "name": "",
          "type": "uint256"
        }
      ],
      "stateMutability": "view",
      "type": "function"
    },
    {
      "inputs": [
        {
          "internalType": "uint256",
          "name": "quantity",
          "type": "uint256"
        }
      ],
      "name": "depositETH",
      "outputs": [],
      "stateMutability": "payable",
      "type": "function"
    },
    {
      "inputs": [],
      "name": "feesInDollar",
      "outputs": [
        {
          "internalType": "uint256",
          "name": "",
          "type": "uint256"
        }
      ],
      "stateMutability": "view",
      "type": "function"
    },
    {
      "inputs": [],
      "name": "getDex",
      "outputs": [
        {
          "internalType": "address",
          "name": "",
          "type": "address"
        },
        {
          "internalType": "address",
          "name": "",
          "type": "address"
        },
        {
          "internalType": "address",
          "name": "",
          "type": "address"
        }
      ],
      "stateMutability": "view",
      "type": "function"
    },
    {
      "inputs": [],
      "name": "getFees",
      "outputs": [
        {
          "internalType": "uint256",
          "name": "",
          "type": "uint256"
        }
      ],
      "stateMutability": "view",
      "type": "function"
    },
    {
      "inputs": [],
      "name": "getFeesInDollar",
      "outputs": [
        {
          "internalType": "uint256",
          "name": "",
          "type": "uint256"
        }
      ],
      "stateMutability": "view",
      "type": "function"
    },
    {
      "inputs": [],
      "name": "getFeesInETH",
      "outputs": [
        {
          "internalType": "uint256",
          "name": "",
          "type": "uint256"
        }
      ],
      "stateMutability": "view",
      "type": "function"
    },
    {
      "inputs": [
        {
          "internalType": "address",
          "name": "_in",
          "type": "address"
        },
        {
          "internalType": "address",
          "name": "_out",
          "type": "address"
        },
        {
          "internalType": "address",
          "name": "_pool",
          "type": "address"
        }
      ],
      "name": "getTokenPriceOutFromPoolBalance",
      "outputs": [
        {
          "internalType": "uint256",
          "name": "",
          "type": "uint256"
        }
      ],
      "stateMutability": "view",
      "type": "function"
    },
    {
      "inputs": [
        {
          "internalType": "uint256",
          "name": "quantity",
          "type": "uint256"
        },
        {
          "internalType": "string",
          "name": "toChain",
          "type": "string"
        }
      ],
      "name": "initTransfer",
      "outputs": [],
      "stateMutability": "payable",
      "type": "function"
    },
    {
      "inputs": [],
      "name": "isPaused",
      "outputs": [
        {
          "internalType": "bool",
          "name": "",
          "type": "bool"
        }
      ],
      "stateMutability": "view",
      "type": "function"
    },
    {
      "inputs": [
        {
          "internalType": "address",
          "name": "sender",
          "type": "address"
        },
        {
          "internalType": "uint256",
          "name": "transferBn",
          "type": "uint256"
        }
      ],
      "name": "isTransferProcessed",
      "outputs": [
        {
          "internalType": "bool",
          "name": "",
          "type": "bool"
        }
      ],
      "stateMutability": "view",
      "type": "function"
    },
    {
      "inputs": [],
      "name": "minimumTransferQuantity",
      "outputs": [
        {
          "internalType": "uint256",
          "name": "",
          "type": "uint256"
        }
      ],
      "stateMutability": "view",
      "type": "function"
    },
    {
      "inputs": [],
      "name": "owner",
      "outputs": [
        {
          "internalType": "address",
          "name": "",
          "type": "address"
        }
      ],
      "stateMutability": "view",
      "type": "function"
    },
    {
      "inputs": [],
      "name": "program",
      "outputs": [
        {
          "internalType": "address",
          "name": "",
          "type": "address"
        }
      ],
      "stateMutability": "view",
      "type": "function"
    },
    {
      "inputs": [
        {
          "internalType": "uint256",
          "name": "cost",
          "type": "uint256"
        }
      ],
      "name": "setDefaultFeesInETH",
      "outputs": [],
      "stateMutability": "nonpayable",
      "type": "function"
    },
    {
      "inputs": [
        {
          "internalType": "address",
          "name": "_in",
          "type": "address"
        },
        {
          "internalType": "address",
          "name": "_out",
          "type": "address"
        },
        {
          "internalType": "address",
          "name": "_pool",
          "type": "address"
        }
      ],
      "name": "setDex",
      "outputs": [],
      "stateMutability": "nonpayable",
      "type": "function"
    },
    {
      "inputs": [
        {
          "internalType": "uint256",
          "name": "cost",
          "type": "uint256"
        }
      ],
      "name": "setFeesInDollar",
      "outputs": [],
      "stateMutability": "nonpayable",
      "type": "function"
    },
    {
      "inputs": [
        {
          "internalType": "uint256",
          "name": "quantity",
          "type": "uint256"
        }
      ],
      "name": "setMinimumTransferQuantity",
      "outputs": [],
      "stateMutability": "nonpayable",
      "type": "function"
    },
    {
      "inputs": [
        {
          "internalType": "bool",
          "name": "p",
          "type": "bool"
        }
      ],
      "name": "setPaused",
      "outputs": [],
      "stateMutability": "nonpayable",
      "type": "function"
    },
    {
      "inputs": [
        {
          "internalType": "uint256",
          "name": "_feesInDollar",
          "type": "uint256"
        }
      ],
      "name": "updateTransferCost",
      "outputs": [],
      "stateMutability": "nonpayable",
      "type": "function"
    }
  ],
  "bytecode": "0x60806040523480156200001157600080fd5b5060405162001da538038062001da58339810160408190526200003491620001ad565b33620000865760405162461bcd60e51b815260206004820152601960248201527f41424f52542073656e646572202d206164647265737328302900000000000000604482015260640160405180910390fd5b60008054336001600160a01b031991821681179092556001805490911690911790558351620000bd906002906020870190620000d4565b5060039190915560055550506000600455620002eb565b828054620000e290620002ae565b90600052602060002090601f01602090048101928262000106576000855562000151565b82601f106200012157805160ff191683800117855562000151565b8280016001018555821562000151579182015b828111156200015157825182559160200191906001019062000134565b506200015f92915062000163565b5090565b5b808211156200015f576000815560010162000164565b634e487b7160e01b600052604160045260246000fd5b80516001600160a01b0381168114620001a857600080fd5b919050565b60008060008060808587031215620001c457600080fd5b84516001600160401b0380821115620001dc57600080fd5b818701915087601f830112620001f157600080fd5b8151818111156200020657620002066200017a565b604051601f8201601f19908116603f011681019083821181831017156200023157620002316200017a565b81604052828152602093508a848487010111156200024e57600080fd5b600091505b8282101562000272578482018401518183018501529083019062000253565b82821115620002845760008484830101525b97506200029691505087820162000190565b60408801516060909801519699909850945050505050565b600181811c90821680620002c357607f821691505b60208210811415620002e557634e487b7160e01b600052602260045260246000fd5b50919050565b611aaa80620002fb6000396000f3fe6080604052600436106101ac5760003560e01c806381d1f9dc116100ec578063c763e5a11161008a578063db18ba7d11610064578063db18ba7d146104ed578063db8d55f114610502578063f8228f7b14610517578063fb93f0161461052d57600080fd5b8063c763e5a114610489578063c860ebc6146104ab578063d294f093146104d857600080fd5b8063a5d53104116100c6578063a5d5310414610405578063a6f9dae114610425578063b187bd2614610445578063b69ef8a81461047557600080fd5b806381d1f9dc1461033b5780638da5cb5b146103505780639d1b9f50146103a257600080fd5b8063419f75fe116101595780635358fbda116101335780635358fbda146102f2578063649c6c56146101d3578063729652bb14610305578063750456911461031b57600080fd5b8063419f75fe1461029257806342ae278c146102b25780634cc3f6e8146102d257600080fd5b8063202bdfc31161018a578063202bdfc3146102455780633b3438ce146102585780633e0353831461027c57600080fd5b806316c38b3c146101b157806318fdc2c8146101d3578063191622ff146101f3575b600080fd5b3480156101bd57600080fd5b506101d16101cc3660046116cf565b61054d565b005b3480156101df57600080fd5b506101d16101ee3660046116f1565b610629565b3480156101ff57600080fd5b50600854600954600a546040805173ffffffffffffffffffffffffffffffffffffffff948516815292841660208401529216918101919091526060015b60405180910390f35b6101d161025336600461170a565b6106bb565b34801561026457600080fd5b5061026e60045481565b60405190815260200161023c565b34801561028857600080fd5b5061026e60035481565b34801561029e57600080fd5b506101d16102ad3660046116f1565b610923565b3480156102be57600080fd5b5061026e6102cd3660046117af565b6109b5565b3480156102de57600080fd5b506101d16102ed3660046117f2565b610b2d565b6101d16103003660046116f1565b610dc2565b34801561031157600080fd5b5061026e60065481565b34801561032757600080fd5b506101d16103363660046117af565b610f76565b34801561034757600080fd5b5061026e611067565b34801561035c57600080fd5b5060005461037d9073ffffffffffffffffffffffffffffffffffffffff1681565b60405173ffffffffffffffffffffffffffffffffffffffff909116815260200161023c565b3480156103ae57600080fd5b506103f56103bd366004611825565b73ffffffffffffffffffffffffffffffffffffffff919091166000908152600760209081526040808320938352929052205460ff1690565b604051901515815260200161023c565b34801561041157600080fd5b506101d161042036600461184f565b6110f0565b34801561043157600080fd5b506101d161044036600461184f565b611227565b34801561045157600080fd5b50600a5474010000000000000000000000000000000000000000900460ff166103f5565b34801561048157600080fd5b50303161026e565b34801561049557600080fd5b5061049e61135e565b60405161023c919061186a565b3480156104b757600080fd5b5060015461037d9073ffffffffffffffffffffffffffffffffffffffff1681565b3480156104e457600080fd5b506101d16113ec565b3480156104f957600080fd5b5060035461026e565b34801561050e57600080fd5b5060065461026e565b34801561052357600080fd5b5061026e60055481565b34801561053957600080fd5b506101d16105483660046116f1565b611606565b60005473ffffffffffffffffffffffffffffffffffffffff1633146105df5760405162461bcd60e51b815260206004820152602160248201527f4f6e6c7920746865206f776e65722063616e20646f207468697320616374696f60448201527f6e0000000000000000000000000000000000000000000000000000000000000060648201526084015b60405180910390fd5b600a805491151574010000000000000000000000000000000000000000027fffffffffffffffffffffff00ffffffffffffffffffffffffffffffffffffffff909216919091179055565b60005473ffffffffffffffffffffffffffffffffffffffff1633146106b65760405162461bcd60e51b815260206004820152602160248201527f4f6e6c7920746865206f776e65722063616e20646f207468697320616374696f60448201527f6e0000000000000000000000000000000000000000000000000000000000000060648201526084016105d6565b600355565b600a547501000000000000000000000000000000000000000000900460ff16156107275760405162461bcd60e51b815260206004820152600e60248201527f4e6f2072652d656e7472616e637900000000000000000000000000000000000060448201526064016105d6565b600a80547fffffffffffffffffffff00ffffffffffffffffffffffffffffffffffffffffff167501000000000000000000000000000000000000000000179081905574010000000000000000000000000000000000000000900460ff16156107d15760405162461bcd60e51b815260206004820152601660248201527f4272696467652061637475616c6c79207061757365640000000000000000000060448201526064016105d6565b6005548310156108235760405162461bcd60e51b815260206004820152601360248201527f494e5355464953414e545f5155414e544954590000000000000000000000000060448201526064016105d6565b61084b83610845606461083f605a610839611067565b90611698565b906116ab565b906116b7565b34101561089a5760405162461bcd60e51b815260206004820152600d60248201527f5041594d454e545f41424f52540000000000000000000000000000000000000060448201526064016105d6565b6108a434846116c3565b600660008282546108b5919061190c565b90915550506040517f4090136e50c099ef9961fa1e7fb2361fc21e86732a92ff014883455b80318914906108ee90859085908590611924565b60405180910390a15050600a80547fffffffffffffffffffff00ffffffffffffffffffffffffffffffffffffffffff16905550565b60005473ffffffffffffffffffffffffffffffffffffffff1633146109b05760405162461bcd60e51b815260206004820152602160248201527f4f6e6c7920746865206f776e65722063616e20646f207468697320616374696f60448201527f6e0000000000000000000000000000000000000000000000000000000000000060648201526084016105d6565b600555565b6040517f70a0823100000000000000000000000000000000000000000000000000000000815273ffffffffffffffffffffffffffffffffffffffff828116600483015260009182918616906370a082319060240160206040518083038186803b158015610a2157600080fd5b505afa158015610a35573d6000803e3d6000fd5b505050506040513d601f19601f82011682018060405250810190610a599190611978565b6040517f70a0823100000000000000000000000000000000000000000000000000000000815273ffffffffffffffffffffffffffffffffffffffff85811660048301529192506000918616906370a082319060240160206040518083038186803b158015610ac657600080fd5b505afa158015610ada573d6000803e3d6000fd5b505050506040513d601f19601f82011682018060405250810190610afe9190611978565b905060008111610b0d57600080fd5b610b238161083f84670de0b6b3a7640000611698565b9695505050505050565b60015473ffffffffffffffffffffffffffffffffffffffff16331480610b6a575060005473ffffffffffffffffffffffffffffffffffffffff1633145b610bb65760405162461bcd60e51b815260206004820152601560248201527f4f6e6c792070726f6772616d206f72204f776e6572000000000000000000000060448201526064016105d6565b438110610c055760405162461bcd60e51b815260206004820152600f60248201527f496e76616c69642072657175657374000000000000000000000000000000000060448201526064016105d6565b73ffffffffffffffffffffffffffffffffffffffff8316600090815260076020908152604080832084845290915290205460ff1615610cac5760405162461bcd60e51b815260206004820152602160248201527f427269646765207265717565737420616c72656164792070726f63657373656460448201527f2e0000000000000000000000000000000000000000000000000000000000000060648201526084016105d6565b610d0c838273ffffffffffffffffffffffffffffffffffffffff90911660009081526007602090815260408083209383529290522080547fffffffffffffffffffffffffffffffffffffffffffffffffffffffffffffff00166001179055565b60008373ffffffffffffffffffffffffffffffffffffffff168360405160006040518083038185875af1925050503d8060008114610d66576040519150601f19603f3d011682016040523d82523d6000602084013e610d6b565b606091505b5050905080610dbc5760405162461bcd60e51b815260206004820152601060248201527f5472616e73666572206661696c6564210000000000000000000000000000000060448201526064016105d6565b50505050565b60005473ffffffffffffffffffffffffffffffffffffffff163314610e4f5760405162461bcd60e51b815260206004820152602160248201527f4f6e6c7920746865206f776e65722063616e20646f207468697320616374696f60448201527f6e0000000000000000000000000000000000000000000000000000000000000060648201526084016105d6565b600a547501000000000000000000000000000000000000000000900460ff1615610ebb5760405162461bcd60e51b815260206004820152600e60248201527f4e6f2072652d656e7472616e637900000000000000000000000000000000000060448201526064016105d6565b600a80547fffffffffffffffffffff00ffffffffffffffffffffffffffffffffffffffffff16750100000000000000000000000000000000000000000017905534811115610f4b5760405162461bcd60e51b815260206004820152600d60248201527f5041594d454e545f41424f52540000000000000000000000000000000000000060448201526064016105d6565b50600a80547fffffffffffffffffffff00ffffffffffffffffffffffffffffffffffffffffff169055565b60005473ffffffffffffffffffffffffffffffffffffffff1633146110035760405162461bcd60e51b815260206004820152602160248201527f4f6e6c7920746865206f776e65722063616e20646f207468697320616374696f60448201527f6e0000000000000000000000000000000000000000000000000000000000000060648201526084016105d6565b6008805473ffffffffffffffffffffffffffffffffffffffff9485167fffffffffffffffffffffffff0000000000000000000000000000000000000000918216179091556009805493851693821693909317909255600a8054919093169116179055565b600a5460009073ffffffffffffffffffffffffffffffffffffffff16156110e957600854600954600a546000926110bb9273ffffffffffffffffffffffffffffffffffffffff9182169290821691166109b5565b90506110e3606461083960035461083f670de0b6b3a76400008661169890919063ffffffff16565b91505090565b5060045490565b60005473ffffffffffffffffffffffffffffffffffffffff16331461117d5760405162461bcd60e51b815260206004820152602160248201527f4f6e6c7920746865206f776e65722063616e20646f207468697320616374696f60448201527f6e0000000000000000000000000000000000000000000000000000000000000060648201526084016105d6565b73ffffffffffffffffffffffffffffffffffffffff81166111e05760405162461bcd60e51b815260206004820152600f60248201527f4e6f207a65726f2061646472657373000000000000000000000000000000000060448201526064016105d6565b600180547fffffffffffffffffffffffff00000000000000000000000000000000000000001673ffffffffffffffffffffffffffffffffffffffff92909216919091179055565b60005473ffffffffffffffffffffffffffffffffffffffff1633146112b45760405162461bcd60e51b815260206004820152602160248201527f4f6e6c7920746865206f776e65722063616e20646f207468697320616374696f60448201527f6e0000000000000000000000000000000000000000000000000000000000000060648201526084016105d6565b73ffffffffffffffffffffffffffffffffffffffff81166113175760405162461bcd60e51b815260206004820152600f60248201527f4e6f207a65726f2061646472657373000000000000000000000000000000000060448201526064016105d6565b600080547fffffffffffffffffffffffff00000000000000000000000000000000000000001673ffffffffffffffffffffffffffffffffffffffff92909216919091179055565b6002805461136b90611991565b80601f016020809104026020016040519081016040528092919081815260200182805461139790611991565b80156113e45780601f106113b9576101008083540402835291602001916113e4565b820191906000526020600020905b8154815290600101906020018083116113c757829003601f168201915b505050505081565b60005473ffffffffffffffffffffffffffffffffffffffff1633146114795760405162461bcd60e51b815260206004820152602160248201527f4f6e6c7920746865206f776e65722063616e20646f207468697320616374696f60448201527f6e0000000000000000000000000000000000000000000000000000000000000060648201526084016105d6565b600a547501000000000000000000000000000000000000000000900460ff16156114e55760405162461bcd60e51b815260206004820152600e60248201527f4e6f2072652d656e7472616e637900000000000000000000000000000000000060448201526064016105d6565b600a80547fffffffffffffffffffff00ffffffffffffffffffffffffffffffffffffffffff1675010000000000000000000000000000000000000000001790556000805460065460405173ffffffffffffffffffffffffffffffffffffffff909216918381818185875af1925050503d8060008114611580576040519150601f19603f3d011682016040523d82523d6000602084013e611585565b606091505b50509050806115d65760405162461bcd60e51b815260206004820152601660248201527f4272696467655472616e73666572206661696c6564210000000000000000000060448201526064016105d6565b506000600655600a80547fffffffffffffffffffff00ffffffffffffffffffffffffffffffffffffffffff169055565b60005473ffffffffffffffffffffffffffffffffffffffff1633146116935760405162461bcd60e51b815260206004820152602160248201527f4f6e6c7920746865206f776e65722063616e20646f207468697320616374696f60448201527f6e0000000000000000000000000000000000000000000000000000000000000060648201526084016105d6565b600455565b60006116a482846119e5565b9392505050565b60006116a48284611a22565b60006116a4828461190c565b60006116a48284611a5d565b6000602082840312156116e157600080fd5b813580151581146116a457600080fd5b60006020828403121561170357600080fd5b5035919050565b60008060006040848603121561171f57600080fd5b83359250602084013567ffffffffffffffff8082111561173e57600080fd5b818601915086601f83011261175257600080fd5b81358181111561176157600080fd5b87602082850101111561177357600080fd5b6020830194508093505050509250925092565b803573ffffffffffffffffffffffffffffffffffffffff811681146117aa57600080fd5b919050565b6000806000606084860312156117c457600080fd5b6117cd84611786565b92506117db60208501611786565b91506117e960408501611786565b90509250925092565b60008060006060848603121561180757600080fd5b61181084611786565b95602085013595506040909401359392505050565b6000806040838503121561183857600080fd5b61184183611786565b946020939093013593505050565b60006020828403121561186157600080fd5b6116a482611786565b600060208083528351808285015260005b818110156118975785810183015185820160400152820161187b565b818111156118a9576000604083870101525b50601f017fffffffffffffffffffffffffffffffffffffffffffffffffffffffffffffffe016929092016040019392505050565b7f4e487b7100000000000000000000000000000000000000000000000000000000600052601160045260246000fd5b6000821982111561191f5761191f6118dd565b500190565b83815260406020820152816040820152818360608301376000818301606090810191909152601f9092017fffffffffffffffffffffffffffffffffffffffffffffffffffffffffffffffe016010192915050565b60006020828403121561198a57600080fd5b5051919050565b600181811c908216806119a557607f821691505b602082108114156119df577f4e487b7100000000000000000000000000000000000000000000000000000000600052602260045260246000fd5b50919050565b6000817fffffffffffffffffffffffffffffffffffffffffffffffffffffffffffffffff0483118215151615611a1d57611a1d6118dd565b500290565b600082611a58577f4e487b7100000000000000000000000000000000000000000000000000000000600052601260045260246000fd5b500490565b600082821015611a6f57611a6f6118dd565b50039056fea2646970667358221220b4dd0b962c7ac16fab696396bf56a30a5bcf0a12fce618344affc4976fc67b1c64736f6c63430008090033",
  "linkReferences": {},
  "deployedLinkReferences": {}
}