{
  "_format": "hh-sol-artifact-1",
  "contractName": "EVMBridge",
  "sourceName": "contracts/EVMBridge.sol",
  "abi": [
    {
      "inputs": [
        {
          "internalType": "string",
          "name": "_bridgeChain",
          "type": "string"
        },
        {
          "internalType": "address",
          "name": "_token",
          "type": "address"
        },
        {
          "internalType": "uint256",
          "name": "_feesInDollar",
          "type": "uint256"
        },
        {
          "internalType": "uint256",
          "name": "_minimumTransferQuantity",
          "type": "uint256"
        }
      ],
      "stateMutability": "nonpayable",
      "type": "constructor"
    },
    {
      "anonymous": false,
      "inputs": [
        {
          "indexed": false,
          "internalType": "uint256",
          "name": "amount",
          "type": "uint256"
        },
        {
          "indexed": false,
          "internalType": "string",
          "name": "toChain",
          "type": "string"
        }
      ],
      "name": "BridgeTransfer",
      "type": "event"
    },
    {
      "inputs": [
        {
          "internalType": "address",
          "name": "to",
          "type": "address"
        },
        {
          "internalType": "uint256",
          "name": "amount",
          "type": "uint256"
        },
        {
          "internalType": "uint256",
          "name": "bn",
          "type": "uint256"
        }
      ],
      "name": "addTransferFrom",
      "outputs": [],
      "stateMutability": "nonpayable",
      "type": "function"
    },
    {
      "inputs": [],
      "name": "balance",
      "outputs": [
        {
          "internalType": "uint256",
          "name": "",
          "type": "uint256"
        }
      ],
      "stateMutability": "view",
      "type": "function"
    },
    {
      "inputs": [],
      "name": "chain",
      "outputs": [
        {
          "internalType": "string",
          "name": "",
          "type": "string"
        }
      ],
      "stateMutability": "view",
      "type": "function"
    },
    {
      "inputs": [
        {
          "internalType": "address",
          "name": "newOwner",
          "type": "address"
        }
      ],
      "name": "changeOwner",
      "outputs": [],
      "stateMutability": "nonpayable",
      "type": "function"
    },
    {
      "inputs": [
        {
          "internalType": "address",
          "name": "newProgram",
          "type": "address"
        }
      ],
      "name": "changeProgram",
      "outputs": [],
      "stateMutability": "nonpayable",
      "type": "function"
    },
    {
      "inputs": [],
      "name": "claimFees",
      "outputs": [],
      "stateMutability": "nonpayable",
      "type": "function"
    },
    {
      "inputs": [],
      "name": "defaultFeesInETH",
      "outputs": [
        {
          "internalType": "uint256",
          "name": "",
          "type": "uint256"
        }
      ],
      "stateMutability": "view",
      "type": "function"
    },
    {
      "inputs": [
        {
          "internalType": "address",
          "name": "coin",
          "type": "address"
        },
        {
          "internalType": "uint256",
          "name": "quantity",
          "type": "uint256"
        }
      ],
      "name": "deposit",
      "outputs": [],
      "stateMutability": "nonpayable",
      "type": "function"
    },
    {
      "inputs": [],
      "name": "feesInDollar",
      "outputs": [
        {
          "internalType": "uint256",
          "name": "",
          "type": "uint256"
        }
      ],
      "stateMutability": "view",
      "type": "function"
    },
    {
      "inputs": [],
      "name": "getDex",
      "outputs": [
        {
          "internalType": "address",
          "name": "",
          "type": "address"
        },
        {
          "internalType": "address",
          "name": "",
          "type": "address"
        },
        {
          "internalType": "address",
          "name": "",
          "type": "address"
        }
      ],
      "stateMutability": "view",
      "type": "function"
    },
    {
      "inputs": [],
      "name": "getFees",
      "outputs": [
        {
          "internalType": "uint256",
          "name": "",
          "type": "uint256"
        }
      ],
      "stateMutability": "view",
      "type": "function"
    },
    {
      "inputs": [],
      "name": "getFeesInDollar",
      "outputs": [
        {
          "internalType": "uint256",
          "name": "",
          "type": "uint256"
        }
      ],
      "stateMutability": "view",
      "type": "function"
    },
    {
      "inputs": [],
      "name": "getFeesInETH",
      "outputs": [
        {
          "internalType": "uint256",
          "name": "",
          "type": "uint256"
        }
      ],
      "stateMutability": "view",
      "type": "function"
    },
    {
      "inputs": [
        {
          "internalType": "address",
          "name": "_in",
          "type": "address"
        },
        {
          "internalType": "address",
          "name": "_out",
          "type": "address"
        },
        {
          "internalType": "address",
          "name": "_pool",
          "type": "address"
        }
      ],
      "name": "getTokenPriceOutFromPoolBalance",
      "outputs": [
        {
          "internalType": "uint256",
          "name": "",
          "type": "uint256"
        }
      ],
      "stateMutability": "view",
      "type": "function"
    },
    {
      "inputs": [
        {
          "internalType": "uint256",
          "name": "quantity",
          "type": "uint256"
        },
        {
          "internalType": "string",
          "name": "toChain",
          "type": "string"
        }
      ],
      "name": "initTransfer",
      "outputs": [],
      "stateMutability": "payable",
      "type": "function"
    },
    {
      "inputs": [],
      "name": "isPaused",
      "outputs": [
        {
          "internalType": "bool",
          "name": "",
          "type": "bool"
        }
      ],
      "stateMutability": "view",
      "type": "function"
    },
    {
      "inputs": [
        {
          "internalType": "address",
          "name": "sender",
          "type": "address"
        },
        {
          "internalType": "uint256",
          "name": "transferBn",
          "type": "uint256"
        }
      ],
      "name": "isTransferProcessed",
      "outputs": [
        {
          "internalType": "bool",
          "name": "",
          "type": "bool"
        }
      ],
      "stateMutability": "view",
      "type": "function"
    },
    {
      "inputs": [],
      "name": "minimumTransferQuantity",
      "outputs": [
        {
          "internalType": "uint256",
          "name": "",
          "type": "uint256"
        }
      ],
      "stateMutability": "view",
      "type": "function"
    },
    {
      "inputs": [],
      "name": "owner",
      "outputs": [
        {
          "internalType": "address",
          "name": "",
          "type": "address"
        }
      ],
      "stateMutability": "view",
      "type": "function"
    },
    {
      "inputs": [],
      "name": "program",
      "outputs": [
        {
          "internalType": "address",
          "name": "",
          "type": "address"
        }
      ],
      "stateMutability": "view",
      "type": "function"
    },
    {
      "inputs": [
        {
          "internalType": "uint256",
          "name": "cost",
          "type": "uint256"
        }
      ],
      "name": "setDefaultFeesInETH",
      "outputs": [],
      "stateMutability": "nonpayable",
      "type": "function"
    },
    {
      "inputs": [
        {
          "internalType": "address",
          "name": "_in",
          "type": "address"
        },
        {
          "internalType": "address",
          "name": "_out",
          "type": "address"
        },
        {
          "internalType": "address",
          "name": "_pool",
          "type": "address"
        }
      ],
      "name": "setDex",
      "outputs": [],
      "stateMutability": "nonpayable",
      "type": "function"
    },
    {
      "inputs": [
        {
          "internalType": "uint256",
          "name": "cost",
          "type": "uint256"
        }
      ],
      "name": "setFeesInDollar",
      "outputs": [],
      "stateMutability": "nonpayable",
      "type": "function"
    },
    {
      "inputs": [
        {
          "internalType": "uint256",
          "name": "quantity",
          "type": "uint256"
        }
      ],
      "name": "setMinimumTransferQuantity",
      "outputs": [],
      "stateMutability": "nonpayable",
      "type": "function"
    },
    {
      "inputs": [
        {
          "internalType": "bool",
          "name": "p",
          "type": "bool"
        }
      ],
      "name": "setPaused",
      "outputs": [],
      "stateMutability": "nonpayable",
      "type": "function"
    },
    {
      "inputs": [],
      "name": "token",
      "outputs": [
        {
          "internalType": "address",
          "name": "",
          "type": "address"
        }
      ],
      "stateMutability": "view",
      "type": "function"
    },
    {
      "inputs": [
        {
          "internalType": "uint256",
          "name": "_feesInDollar",
          "type": "uint256"
        }
      ],
      "name": "updateTransferCost",
      "outputs": [],
      "stateMutability": "nonpayable",
      "type": "function"
    }
  ],
  "bytecode": "0x60806040523480156200001157600080fd5b5060405162002393380380620023938339810160408190526200003491620001c0565b33620000865760405162461bcd60e51b815260206004820152601960248201527f41424f52542073656e646572202d206164647265737328302900000000000000604482015260640160405180910390fd5b600080546001600160a01b0385166001600160a01b03199182161790915560018054821633908117909155600280549092161790558351620000d0906003906020870190620000e7565b5060049190915560065550506000600555620002fe565b828054620000f590620002c1565b90600052602060002090601f01602090048101928262000119576000855562000164565b82601f106200013457805160ff191683800117855562000164565b8280016001018555821562000164579182015b828111156200016457825182559160200191906001019062000147565b506200017292915062000176565b5090565b5b8082111562000172576000815560010162000177565b634e487b7160e01b600052604160045260246000fd5b80516001600160a01b0381168114620001bb57600080fd5b919050565b60008060008060808587031215620001d757600080fd5b84516001600160401b0380821115620001ef57600080fd5b818701915087601f8301126200020457600080fd5b8151818111156200021957620002196200018d565b604051601f8201601f19908116603f011681019083821181831017156200024457620002446200018d565b81604052828152602093508a848487010111156200026157600080fd5b600091505b8282101562000285578482018401518183018501529083019062000266565b82821115620002975760008484830101525b9750620002a9915050878201620001a3565b60408801516060909801519699909850945050505050565b600181811c90821680620002d657607f821691505b60208210811415620002f857634e487b7160e01b600052602260045260246000fd5b50919050565b612085806200030e6000396000f3fe6080604052600436106101ac5760003560e01c80638da5cb5b116100ec578063c860ebc61161008a578063db8d55f111610064578063db8d55f11461046c578063f8228f7b146104f9578063fb93f0161461050f578063fc0c546a1461052f57600080fd5b8063c860ebc6146104a2578063d294f093146104cf578063db18ba7d146104e457600080fd5b8063a6f9dae1116100c6578063a6f9dae11461041c578063b187bd261461043c578063b69ef8a81461046c578063c763e5a11461048057600080fd5b80638da5cb5b146103475780639d1b9f5014610399578063a5d53104146103fc57600080fd5b8063419f75fe116101595780634cc3f6e8116101335780634cc3f6e8146102f2578063649c6c56146101d3578063750456911461031257806381d1f9dc1461033257600080fd5b8063419f75fe1461029257806342ae278c146102b257806347e7ef24146102d257600080fd5b8063202bdfc31161018a578063202bdfc3146102455780633b3438ce146102585780633e0353831461027c57600080fd5b806316c38b3c146101b157806318fdc2c8146101d3578063191622ff146101f3575b600080fd5b3480156101bd57600080fd5b506101d16101cc366004611c9f565b61055c565b005b3480156101df57600080fd5b506101d16101ee366004611cbc565b610638565b3480156101ff57600080fd5b50600854600954600a546040805173ffffffffffffffffffffffffffffffffffffffff948516815292841660208401529216918101919091526060015b60405180910390f35b6101d1610253366004611cd5565b6106ca565b34801561026457600080fd5b5061026e60055481565b60405190815260200161023c565b34801561028857600080fd5b5061026e60045481565b34801561029e57600080fd5b506101d16102ad366004611cbc565b610b10565b3480156102be57600080fd5b5061026e6102cd366004611d7a565b610ba2565b3480156102de57600080fd5b506101d16102ed366004611dbd565b610d1a565b3480156102fe57600080fd5b506101d161030d366004611de7565b61106b565b34801561031e57600080fd5b506101d161032d366004611d7a565b611273565b34801561033e57600080fd5b5061026e611364565b34801561035357600080fd5b506001546103749073ffffffffffffffffffffffffffffffffffffffff1681565b60405173ffffffffffffffffffffffffffffffffffffffff909116815260200161023c565b3480156103a557600080fd5b506103ec6103b4366004611dbd565b73ffffffffffffffffffffffffffffffffffffffff919091166000908152600760209081526040808320938352929052205460ff1690565b604051901515815260200161023c565b34801561040857600080fd5b506101d1610417366004611e1a565b6113ed565b34801561042857600080fd5b506101d1610437366004611e1a565b611524565b34801561044857600080fd5b50600a5474010000000000000000000000000000000000000000900460ff166103ec565b34801561047857600080fd5b50303161026e565b34801561048c57600080fd5b5061049561165b565b60405161023c9190611e65565b3480156104ae57600080fd5b506002546103749073ffffffffffffffffffffffffffffffffffffffff1681565b3480156104db57600080fd5b506101d16116e9565b3480156104f057600080fd5b5060045461026e565b34801561050557600080fd5b5061026e60065481565b34801561051b57600080fd5b506101d161052a366004611cbc565b611903565b34801561053b57600080fd5b506000546103749073ffffffffffffffffffffffffffffffffffffffff1681565b60015473ffffffffffffffffffffffffffffffffffffffff1633146105ee5760405162461bcd60e51b815260206004820152602160248201527f4f6e6c7920746865206f776e65722063616e20646f207468697320616374696f60448201527f6e0000000000000000000000000000000000000000000000000000000000000060648201526084015b60405180910390fd5b600a805491151574010000000000000000000000000000000000000000027fffffffffffffffffffffff00ffffffffffffffffffffffffffffffffffffffff909216919091179055565b60015473ffffffffffffffffffffffffffffffffffffffff1633146106c55760405162461bcd60e51b815260206004820152602160248201527f4f6e6c7920746865206f776e65722063616e20646f207468697320616374696f60448201527f6e0000000000000000000000000000000000000000000000000000000000000060648201526084016105e5565b600455565b600a547501000000000000000000000000000000000000000000900460ff16156107365760405162461bcd60e51b815260206004820152600e60248201527f4e6f2072652d656e7472616e637900000000000000000000000000000000000060448201526064016105e5565b600a80547fffffffffffffffffffff00ffffffffffffffffffffffffffffffffffffffffff167501000000000000000000000000000000000000000000179081905574010000000000000000000000000000000000000000900460ff16156107e05760405162461bcd60e51b815260206004820152601660248201527f4272696467652061637475616c6c79207061757365640000000000000000000060448201526064016105e5565b6006548310156108325760405162461bcd60e51b815260206004820152601360248201527f494e5355464953414e545f5155414e544954590000000000000000000000000060448201526064016105e5565b610850606461084a605a610844611364565b90611995565b906119a8565b34101561089f5760405162461bcd60e51b815260206004820152600d60248201527f5041594d454e545f41424f52540000000000000000000000000000000000000060448201526064016105e5565b6000546040517f70a08231000000000000000000000000000000000000000000000000000000008152336004820152849173ffffffffffffffffffffffffffffffffffffffff16906370a082319060240160206040518083038186803b15801561090857600080fd5b505afa15801561091c573d6000803e3d6000fd5b505050506040513d601f19601f820116820180604052508101906109409190611eb6565b101561098e5760405162461bcd60e51b815260206004820152601260248201527f494e5355464953414e545f42414c414e4345000000000000000000000000000060448201526064016105e5565b6000546040517fdd62ed3e000000000000000000000000000000000000000000000000000000008152336004820152306024820152849173ffffffffffffffffffffffffffffffffffffffff169063dd62ed3e9060440160206040518083038186803b1580156109fd57600080fd5b505afa158015610a11573d6000803e3d6000fd5b505050506040513d601f19601f82011682018060405250810190610a359190611eb6565b1015610a835760405162461bcd60e51b815260206004820152601460248201527f494e5355464953414e545f414c4c4f57414e434500000000000000000000000060448201526064016105e5565b600054610aa89073ffffffffffffffffffffffffffffffffffffffff163330866119b4565b7f4090136e50c099ef9961fa1e7fb2361fc21e86732a92ff014883455b80318914838383604051610adb93929190611ecf565b60405180910390a15050600a80547fffffffffffffffffffff00ffffffffffffffffffffffffffffffffffffffffff16905550565b60015473ffffffffffffffffffffffffffffffffffffffff163314610b9d5760405162461bcd60e51b815260206004820152602160248201527f4f6e6c7920746865206f776e65722063616e20646f207468697320616374696f60448201527f6e0000000000000000000000000000000000000000000000000000000000000060648201526084016105e5565b600655565b6040517f70a0823100000000000000000000000000000000000000000000000000000000815273ffffffffffffffffffffffffffffffffffffffff828116600483015260009182918616906370a082319060240160206040518083038186803b158015610c0e57600080fd5b505afa158015610c22573d6000803e3d6000fd5b505050506040513d601f19601f82011682018060405250810190610c469190611eb6565b6040517f70a0823100000000000000000000000000000000000000000000000000000000815273ffffffffffffffffffffffffffffffffffffffff85811660048301529192506000918616906370a082319060240160206040518083038186803b158015610cb357600080fd5b505afa158015610cc7573d6000803e3d6000fd5b505050506040513d601f19601f82011682018060405250810190610ceb9190611eb6565b905060008111610cfa57600080fd5b610d108161084a84670de0b6b3a7640000611995565b9695505050505050565b60015473ffffffffffffffffffffffffffffffffffffffff163314610da75760405162461bcd60e51b815260206004820152602160248201527f4f6e6c7920746865206f776e65722063616e20646f207468697320616374696f60448201527f6e0000000000000000000000000000000000000000000000000000000000000060648201526084016105e5565b600a547501000000000000000000000000000000000000000000900460ff1615610e135760405162461bcd60e51b815260206004820152600e60248201527f4e6f2072652d656e7472616e637900000000000000000000000000000000000060448201526064016105e5565b600a80547fffffffffffffffffffff00ffffffffffffffffffffffffffffffffffffffffff1675010000000000000000000000000000000000000000001790556040517f70a08231000000000000000000000000000000000000000000000000000000008152336004820152819073ffffffffffffffffffffffffffffffffffffffff8416906370a082319060240160206040518083038186803b158015610eba57600080fd5b505afa158015610ece573d6000803e3d6000fd5b505050506040513d601f19601f82011682018060405250810190610ef29190611eb6565b1015610f405760405162461bcd60e51b815260206004820152601260248201527f494e5355464953414e545f42414c414e4345000000000000000000000000000060448201526064016105e5565b6040517fdd62ed3e000000000000000000000000000000000000000000000000000000008152336004820152306024820152819073ffffffffffffffffffffffffffffffffffffffff84169063dd62ed3e9060440160206040518083038186803b158015610fad57600080fd5b505afa158015610fc1573d6000803e3d6000fd5b505050506040513d601f19601f82011682018060405250810190610fe59190611eb6565b10156110335760405162461bcd60e51b815260206004820152601460248201527f494e5355464953414e545f414c4c4f57414e434500000000000000000000000060448201526064016105e5565b61103f823330846119b4565b5050600a80547fffffffffffffffffffff00ffffffffffffffffffffffffffffffffffffffffff169055565b60025473ffffffffffffffffffffffffffffffffffffffff163314806110a8575060015473ffffffffffffffffffffffffffffffffffffffff1633145b6110f45760405162461bcd60e51b815260206004820152601560248201527f4f6e6c792070726f6772616d206f72204f776e6572000000000000000000000060448201526064016105e5565b4381106111435760405162461bcd60e51b815260206004820152600f60248201527f496e76616c69642072657175657374000000000000000000000000000000000060448201526064016105e5565b73ffffffffffffffffffffffffffffffffffffffff8316600090815260076020908152604080832084845290915290205460ff16156111ea5760405162461bcd60e51b815260206004820152602160248201527f427269646765207265717565737420616c72656164792070726f63657373656460448201527f2e0000000000000000000000000000000000000000000000000000000000000060648201526084016105e5565b61124a838273ffffffffffffffffffffffffffffffffffffffff90911660009081526007602090815260408083209383529290522080547fffffffffffffffffffffffffffffffffffffffffffffffffffffffffffffff00166001179055565b60005461126e9073ffffffffffffffffffffffffffffffffffffffff168484611b38565b505050565b60015473ffffffffffffffffffffffffffffffffffffffff1633146113005760405162461bcd60e51b815260206004820152602160248201527f4f6e6c7920746865206f776e65722063616e20646f207468697320616374696f60448201527f6e0000000000000000000000000000000000000000000000000000000000000060648201526084016105e5565b6008805473ffffffffffffffffffffffffffffffffffffffff9485167fffffffffffffffffffffffff0000000000000000000000000000000000000000918216179091556009805493851693821693909317909255600a8054919093169116179055565b600a5460009073ffffffffffffffffffffffffffffffffffffffff16156113e657600854600954600a546000926113b89273ffffffffffffffffffffffffffffffffffffffff918216929082169116610ba2565b90506113e0606461084460045461084a670de0b6b3a76400008661199590919063ffffffff16565b91505090565b5060055490565b60015473ffffffffffffffffffffffffffffffffffffffff16331461147a5760405162461bcd60e51b815260206004820152602160248201527f4f6e6c7920746865206f776e65722063616e20646f207468697320616374696f60448201527f6e0000000000000000000000000000000000000000000000000000000000000060648201526084016105e5565b73ffffffffffffffffffffffffffffffffffffffff81166114dd5760405162461bcd60e51b815260206004820152600f60248201527f4e6f207a65726f2061646472657373000000000000000000000000000000000060448201526064016105e5565b600280547fffffffffffffffffffffffff00000000000000000000000000000000000000001673ffffffffffffffffffffffffffffffffffffffff92909216919091179055565b60015473ffffffffffffffffffffffffffffffffffffffff1633146115b15760405162461bcd60e51b815260206004820152602160248201527f4f6e6c7920746865206f776e65722063616e20646f207468697320616374696f60448201527f6e0000000000000000000000000000000000000000000000000000000000000060648201526084016105e5565b73ffffffffffffffffffffffffffffffffffffffff81166116145760405162461bcd60e51b815260206004820152600f60248201527f4e6f207a65726f2061646472657373000000000000000000000000000000000060448201526064016105e5565b600180547fffffffffffffffffffffffff00000000000000000000000000000000000000001673ffffffffffffffffffffffffffffffffffffffff92909216919091179055565b6003805461166890611f23565b80601f016020809104026020016040519081016040528092919081815260200182805461169490611f23565b80156116e15780601f106116b6576101008083540402835291602001916116e1565b820191906000526020600020905b8154815290600101906020018083116116c457829003601f168201915b505050505081565b60015473ffffffffffffffffffffffffffffffffffffffff1633146117765760405162461bcd60e51b815260206004820152602160248201527f4f6e6c7920746865206f776e65722063616e20646f207468697320616374696f60448201527f6e0000000000000000000000000000000000000000000000000000000000000060648201526084016105e5565b600a547501000000000000000000000000000000000000000000900460ff16156117e25760405162461bcd60e51b815260206004820152600e60248201527f4e6f2072652d656e7472616e637900000000000000000000000000000000000060448201526064016105e5565b600a80547fffffffffffffffffffff00ffffffffffffffffffffffffffffffffffffffffff16750100000000000000000000000000000000000000000017905560015460009073ffffffffffffffffffffffffffffffffffffffff16611846303190565b604051600081818185875af1925050503d8060008114611882576040519150601f19603f3d011682016040523d82523d6000602084013e611887565b606091505b50509050806118d85760405162461bcd60e51b815260206004820152601660248201527f4272696467655472616e73666572206661696c6564210000000000000000000060448201526064016105e5565b50600a80547fffffffffffffffffffff00ffffffffffffffffffffffffffffffffffffffffff169055565b60015473ffffffffffffffffffffffffffffffffffffffff1633146119905760405162461bcd60e51b815260206004820152602160248201527f4f6e6c7920746865206f776e65722063616e20646f207468697320616374696f60448201527f6e0000000000000000000000000000000000000000000000000000000000000060648201526084016105e5565b600555565b60006119a18284611f77565b9392505050565b60006119a18284611fdb565b6040805173ffffffffffffffffffffffffffffffffffffffff85811660248301528481166044830152606480830185905283518084039091018152608490920183526020820180517bffffffffffffffffffffffffffffffffffffffffffffffffffffffff167f23b872dd000000000000000000000000000000000000000000000000000000001790529151600092839290881691611a539190612016565b6000604051808303816000865af19150503d8060008114611a90576040519150601f19603f3d011682016040523d82523d6000602084013e611a95565b606091505b5091509150818015611abf575080511580611abf575080806020019051810190611abf9190612032565b611b305760405162461bcd60e51b8152602060048201526024808201527f5472616e7366657248656c7065723a205452414e534645525f46524f4d5f464160448201527f494c45440000000000000000000000000000000000000000000000000000000060648201526084016105e5565b505050505050565b6040805173ffffffffffffffffffffffffffffffffffffffff8481166024830152604480830185905283518084039091018152606490920183526020820180517bffffffffffffffffffffffffffffffffffffffffffffffffffffffff167fa9059cbb000000000000000000000000000000000000000000000000000000001790529151600092839290871691611bcf9190612016565b6000604051808303816000865af19150503d8060008114611c0c576040519150601f19603f3d011682016040523d82523d6000602084013e611c11565b606091505b5091509150818015611c3b575080511580611c3b575080806020019051810190611c3b9190612032565b611c875760405162461bcd60e51b815260206004820152601f60248201527f5472616e7366657248656c7065723a205452414e534645525f4641494c45440060448201526064016105e5565b5050505050565b8015158114611c9c57600080fd5b50565b600060208284031215611cb157600080fd5b81356119a181611c8e565b600060208284031215611cce57600080fd5b5035919050565b600080600060408486031215611cea57600080fd5b83359250602084013567ffffffffffffffff80821115611d0957600080fd5b818601915086601f830112611d1d57600080fd5b813581811115611d2c57600080fd5b876020828501011115611d3e57600080fd5b6020830194508093505050509250925092565b803573ffffffffffffffffffffffffffffffffffffffff81168114611d7557600080fd5b919050565b600080600060608486031215611d8f57600080fd5b611d9884611d51565b9250611da660208501611d51565b9150611db460408501611d51565b90509250925092565b60008060408385031215611dd057600080fd5b611dd983611d51565b946020939093013593505050565b600080600060608486031215611dfc57600080fd5b611e0584611d51565b95602085013595506040909401359392505050565b600060208284031215611e2c57600080fd5b6119a182611d51565b60005b83811015611e50578181015183820152602001611e38565b83811115611e5f576000848401525b50505050565b6020815260008251806020840152611e84816040850160208701611e35565b601f017fffffffffffffffffffffffffffffffffffffffffffffffffffffffffffffffe0169190910160400192915050565b600060208284031215611ec857600080fd5b5051919050565b83815260406020820152816040820152818360608301376000818301606090810191909152601f9092017fffffffffffffffffffffffffffffffffffffffffffffffffffffffffffffffe016010192915050565b600181811c90821680611f3757607f821691505b60208210811415611f71577f4e487b7100000000000000000000000000000000000000000000000000000000600052602260045260246000fd5b50919050565b6000817fffffffffffffffffffffffffffffffffffffffffffffffffffffffffffffffff0483118215151615611fd6577f4e487b7100000000000000000000000000000000000000000000000000000000600052601160045260246000fd5b500290565b600082612011577f4e487b7100000000000000000000000000000000000000000000000000000000600052601260045260246000fd5b500490565b60008251612028818460208701611e35565b9190910192915050565b60006020828403121561204457600080fd5b81516119a181611c8e56fea264697066735822122015681a668213675386a0892e92438b1c907ac9bedd7f29691921ff6c7c96aaea64736f6c63430008090033",
  "linkReferences": {},
  "deployedLinkReferences": {}
}